:10000000004001209DFF0200D1000300D100030049
:10001000D1000300D1000300D1000300D100030090
:10002000D1000300D1000300D1000300D100030080
:0C003000D1000300D10003009100030088
:100040000128000000000000000000000001003056
:1000500000000000000000000003FF186400000022
:10006000000000000000000078563412000000007C
:10007000BAAB00000000000100000000000000001A
:100080000500060008000900160002010202030232
:10009000000301030105020500060106040B140616
:1000A00015061706000701070207030700090409E0
:1000B00007000A000C000D000E000F0010001100D8
:1000C0001200130014001B000001010100020102D4
:1000D00002040004010403040404050406040005EA
:1000E00002060306040605060606070608060906B4
:1000F0000A060B060C060D060E060F061006110664
:100100001206130604070009000B010B020B030B78
:100110000097B92EE5725CCB5DCAE473B82F0196E7
:10012000BA2D03945FC8E671E7705EC90295BB2CD7
:10013000E3745ACD0691BF28BE2907905BCCE275C7
:1001400059CEE077BC2B05920493BD2AE17658CFB7
:1001500051C6E87FB4230D9A0C9BB522E97E50C7A7
:10016000EB7C52C50E99B720B6210F9853C4EA7D97
:10017000B2250B9C57C0EE79EF7856C10A9DB32487
:10018000089FB126ED7A54C355C2EC7BB027099E77
:10019000A2351B8C47D0FE69FF6846D11A8DA33467
:1001A000188FA136FD6A44D345D2FC6BA037198E57
:1001B00041D6F86FA4331D8A1C8BA532F96E40D747
:1001C000FB6C42D51E89A730A6311F8843D4FA6D37
:1001D000F3644ADD1681AF38AE3917804BDCF26527
:1001E00049DEF067AC3B15821483AD3AF16648DF17
:1001F0001087A93EF5624CDB4DDAF463A83F118607
:10020000AA3D13844FD8F661F7604ED91285AB3CF6
:10021000B8550020C0550020FC5500200C56002089
:100220000000000040560020605600206856002064
:100230008456002094560020281B0000601B0000FC
:10024000701B00007C1B00008C1B0000C0560020AF
:10025000D0560020D4560020D8560020E81D00209B
:10026000DC560020E0560020E4560020E85600202E
:10027000EC560020F0560020005700203857002090
:100280004C5700209C1B0000101C0000841C000028
:10029000F81C00006C1D0000E01D0000F81D0000AF
:1002A000041E00001B5E002078570020EC1D00207B
:1002B00084570020A05700201C5E00201D5E0020F7
:1002C000C4570020F4570020085800201E5E00206C
:1002D000B008000038090000000000000000000025
:1002E000101E000074580020FC5800200059002007
:1002F000001E0020041E002004590020201E0000C3
:1003000008590020205900200000000000000000D3
:10031000701A002000000000000000000000000033
:100320000000000074590020A8590020003E002061
:10033000014A031049480310D5490310154703101B
:1003400091D202005D49031081470310A1460310BA
:100350009548031045450310254A03102144031016
:10036000ED47031099490310E14803102149031098
:100370005553031089520310CD52031065500310DA
:100380008D4E031025C802000FC902008DCB02005C
:100390000000000059510310ED5003102DCD020054
:1003A000CD4B03102952031011530310A95503100C
:1003B0007555031069530310DD55031035550310AF
:1003C000EDDA020021540310855C03100D56031072
:1003D0004D5D0310A9640310B55B03106D57031046
:1003E000E5610310095E0310C55803108560031012
:1003F00071610310B1620310996303105563031018
:10040000FD600310B15E0310ADD10200D55A031098
:10041000D559031009630310D9630310196403103D
:10042000555F0310C56403104D620310716403101F
:100430008D64031055640310E164031029750310E3
:1004400079720310A16B0310F57203109D740310F1
:10045000797403102D74031061730310FD7303107E
:100460005574031015750310D96C0310FD74031037
:10047000A9D80200E17403103D75031011DA0200DF
:10048000F9640310CD6803102D710310C1740310BB
:10049000F56E0310B973031085DC0200056E0310BE
:1004A000C56F0310C9DB0200A1770310797D03102B
:1004B0003D7E031049750310157E0310357D031032
:1004C00099760310997C0310257B03107178031033
:1004D000B57D0310ED7C0310857E03102D7903108C
:1004E000B97A0310917B0310B1790310ED7B0310EF
:1004F000E97D0310617E0310357A0310D57E031069
:10050000457C0310A57E0310BD7E0310E3C60200E8
:10051000D9800310E97E03104983031089840310F6
:100520008D8103107D820310E58403102B8403105A
:10053000C583031091870310618803104588031059
:10054000F1850310B18803107D880310C98803105A
:100550001D870310A186031001850310E188031095
:1005600099880310F98703107FD70200359C031088
:10057000819D0310E99A0310359B0310C19B031062
:10058000419A0310F18803101D8C0310618F031032
:10059000F1940310919E0310C19E03103D9E031021
:1005A000699E0310259E0310619D03100D9E03108C
:1005B000819B0310ED93031055990310C997031005
:1005C000D9980310BD950310959C0310C19D03108D
:1005D000A59E03107D9E0310C9910310F1D6020061
:1005E000699C0310DD9D031095900310FD9B031083
:1005F000CD99031091C40200019D0310E19C0310EA
:10060000219D0310419D0310BD9C0310F59D031017
:10061000A19D031055980310E1920310999A0310BD
:10062000B99E0310559E0310A1C40200EFC402003E
:1006300039A2031013C5020069A1031075A20310AB
:10064000C59E0310B9A10310F9A1031015A1031051
:100650009DA2031051DE020059DE02005BDE0200A3
:1006600099DE0200ADDE0200B3DE020031A9031004
:10067000ADA20310C5CF0200B9A8031099A50310BD
:10068000BFCA020039A803106DA90310CDC902002A
:100690006DAC031099B1031009AF031059B10310E9
:1006A00001B103109DA9031059D30200C1C9020072
:1006B000C9C902005DD3020061D30200C5C90200AE
:1006C00065D3020069D302006DD3020071D302002A
:1006D00075D30200F1B9031075BA031081BB031082
:1006E00089E00200C1E00200A1E1020041E2020053
:1006F0002BE3020069E30200EFE302001DE40200C5
:100700007DE40200B1E40200D3E40200F1E402005F
:1007100053E502009FE50200A7E50200E1E50200C3
:1007200063E602007BE6020005E70200A1C90200C1
:1007300051D3020055D3020079D3020091D50200B3
:10074000E9C603104DD30200F9C0020025C402001F
:10075000A93C0100573D0100ED3C01000D4D020098
:1007600055DC010021C4020037C502003BC5020070
:10077000A9C502003FC60200BD310000CB31000018
:10078000AD310000B531000075310000F900030003
:1007900005010300312B0000632B0000952E0000A3
:1007A0000F2E0000472E0000652F00004D2F000087
:1007B0004D2C0000832B0000992F0000C32C00005B
:1007C00009C90100CD580200377D00004930000002
:1007D0006131000075660000B5660000F766000034
:1007E000CD660000C61F0020235E0020245E00208E
:1007F000225E0020255E0020265E0020C71F00200C
:100800006BE3010013F80100013B0200DBE601008D
:100810004BE701005D3C0200C93C0200B5E7010066
:1008200003E70100B7E6010077E701008D3A020017
:10083000853A020003BF0100CFBE0100DB42020087
:100840005D3A0200C33A0200D13A0200DF3A0200E8
:10085000C7BC010087BA010085BD010085BE01004B
:1008600011E00200CF3B02008542020091420200EB
:1008700000000000553F0200833A0200953E02004E
:10088000273F020000000000DFE30100A9F401009F
:100890006FFB0100B5BC010000000000000000007B
:1008A00029000200F93802004DBD01009D420200FE
:1008B000360001000600000000000000000F0000EC
:1008C0000000000000000000000000000000030025
:1008D000FFFF00000403FFFF0000FFFF0F00E8031D
:1008E0000005401F0310000100000000FF3F0F0043
:1008F0000800050B00000000000000000300010FCD
:1009000000000000000000000000000000000000E7
:1009100000000000000000000000000000000000D7
:1009200000000000000000000000000000000000C7
:10093000AD00000200000000000136360101000198
:100940000201000103010001040106060804000081
:100950000C0100340D01000F10040101140100FF0F
:100960001608000020020000220100FF2301000100
:10097000240100FE250100082602000028010001D4
:10098000290100012A0200002C01000F2E020000A4
:100990003001000131010008320200FF340100077C
:1009A000350102FF36010000370100013801000166
:1009B000390100FF3A01000F3C0200FF3E01010F28
:1009C0003F0100014001041F41010001420100FFFD
:1009D00043010080440800004E0100084F01000F51
:1009E00050010001510100FF5201000053010000BD
:1009F00054010001580400005C0400006004000081
:100A000064040000680400006C040000700400002E
:100A100074040000780400007C040000800100FFE2
:100A200081010001820100018301020284010001B1
:100A300057290200092C02000000000000000000FD
:100A400000000000D9310200F73102003D31020000
:100A50001132020041320200473202001934020012
:100A6000000000000F340200293502005B2D020057
:100A70004D3202006D320200FD320200A535020047
:100A8000E32D0200A93702008537020000000000B4
:100A900025380200C92D0200CD360200FDB6010046
:100AA00039B6010053B701000DB601001FB60100B1
:100AB000A3B80100A7B801003DC2010099C101001F
:100AC000ABC2010069C101007BC1010003C3010089
:100AD00007C30100858B0100898B0100E01B00200A
:100AE000901B0020DC0C0000FC0C0000140D00002A
:100AF000400000002C0D00004C0D00000000000024
:100B00005B41737365727420526561736F6E5D2013
:100B10003078253032580000FFFFFFFFFFFFFFFF56
:100B2000FFFFFF960A000000020000000400000022
:100B3000080000001000000020000000400000003D
:100B4000800000000001000000020000000400001E
:100B5000000800000010000000200000004000001D
:100B6000E8030000D0D1D2D3D4D5D6D7D8D9DADB98
:100B7000DCDDDEDF5A6967426565416C6C69616E78
:100B800063653039303E0020F3AE0200483E00205D
:100B900072B10200000002400929FF006C3E0020F3
:100BA000940B0000141B00208C3E0020083F002006
:100BB000FFFFFFFF002005000040000000000000D4
:100BC0000060250000100000843F0020400000006D
:100BD000000000000000000000093D0014000000BB
:100BE00064000000E41E0000EA5D0020B40B000079
:100BF0000C1F0000C43F0020BC0B000000000000E0
:100C0000C57F000005B300000101010000000000E5
:100C1000FF000100B957020007000000000000407B
:100C200017FF0000000000000400FFFF08000000A4
:100C3000100000004018002030180020401A00204A
:100C4000301A00200A000000090000000C0000001B
:100C50000B00000009080AFF0A000000341F000012
:100C6000D03F00201C0C0000FF000000000000002E
:100C700080A90300D0400020680C00000010004054
:100C800015000000FF000000C4420020200000000A
:100C9000E442002020000000000000000C000000E2
:100CA0000D000000FF000000FF00000020180020E1
:100CB00010180020040000000200000005000000E1
:100CC000100000000F0000001100000012000000E2
:100CD00000020000544100207C0C000002080000CB
:100CE000000000000000000000010100080053287F
:100CF000F01B0020000000000000000003080000BE
:100D00000000000000000000000165090000000074
:100D100000000000012C00000000000000000000A6
:100D20000001001E0000000000000000022C000076
:100D300000000000000000000000000000000000B3
:100D4000000000000000000000000000032C000074
:100D50000000000000000000000000000000000093
:100D60004572726F72207261697365643A20000087
:100D7000417373657274206661696C65643A200022
:100D800074692E73797362696F732E6B6E6C2E5457
:100D900061736B2E49646C655461736B00000000D5
:100DA00069643A20307825782061303A20307825FF
:100DB000782061313A20307825780A00286E756CE9
:100DC0006C290000303132333435363738396162BE
:100DD0006364656600000000000000000000000081
:100DE0000000000000000000E80300000000000018
:100DF000000000000000000000000000541C002063
:100E000000000000000000000100000000000000E1
:100E1000E00000000100000020000000360000009B
:100E2000000000000000000000000000E98B00004E
:100E3000D100030000000000696E746E756D3A20E9
:100E40002564206973206F7574206F662072616E4F
:100E500067652028633A2F74692F73696D706C651C
:100E60006C696E6B5F6363313378785F63633236CE
:100E700078785F73646B5F365F34315F30305F3139
:100E8000372F6B65726E656C2F746972746F733770
:100E90002F7061636B616765732F74692F7379734A
:100EA00062696F732F66616D696C792F61726D2F46
:100EB0006D332F4877692E633A33383529000000A7
:100EC00048776920616C7265616479206465666940
:100ED0006E65643A20696E7472232025642028634D
:100EE0003A2F74692F73696D706C656C696E6B5FF6
:100EF0006363313378785F6363323678785F736425
:100F00006B5F365F34315F30305F31372F6B657226
:100F10006E656C2F746972746F73372F7061636BB9
:100F2000616765732F74692F73797362696F732FAB
:100F300066616D696C792F61726D2F6D332F487703
:100F4000692E633A3339332900000000546F6F2053
:100F50006D616E7920696E7465727275707473203C
:100F6000646566696E65642028633A2F74692F731F
:100F7000696D706C656C696E6B5F63633133787833
:100F80005F6363323678785F73646B5F365F3431EA
:100F90005F30305F31372F6B65726E656C2F74690F
:100FA00072746F73372F7061636B616765732F7431
:100FB000692F73797362696F732F66616D696C79DC
:100FC0002F61726D2F6D332F4877692E633A353458
:100FD0003529000068617264776172652065786305
:100FE000657074696F6E206964203D2025642C2033
:100FF0007063203D203078253038782028633A2FE0
:1010000074692F73696D706C656C696E6B5F636377
:10101000313378785F6363323678785F73646B5FFF
:10102000365F34315F30305F31372F6B65726E65FC
:101030006C2F746972746F73372F7061636B6167A3
:1010400065732F74692F73797362696F732F66618B
:101050006D696C792F61726D2F6D332F4877692E12
:10106000633A3131303029006E6F204953522C20C1
:101070006964203D2025642C207063203D20307859
:10108000253038782028633A2F74692F73696D7082
:101090006C656C696E6B5F6363313378785F636333
:1010A000323678785F73646B5F365F34315F30302F
:1010B0005F31372F6B65726E656C2F746972746F58
:1010C00073372F7061636B616765732F74692F735A
:1010D000797362696F732F66616D696C792F6172C4
:1010E0006D2F6D332F4877692E633A3131303329B4
:1010F00000000000080000000000000000000000E8
:1011000000000000000000000000000004000000DB
:101110000A000000000000000000000000000000C5
:1011200000000000000000000000000000000000BF
:1011300000000000050000000000000006000000A4
:10114000000000000000000000000000010000009E
:10115000000000000002000000000000000000008D
:1011600001000000000000007FA90000BFA90000EE
:10117000EFA900000DAA0000060000000002000018
:10118000696E76616C6964206D6F64756C6520733F
:10119000746174652028633A2F74692F73696D70C8
:1011A0006C656C696E6B5F6363313378785F636322
:1011B000323678785F73646B5F365F34315F30301E
:1011C0005F31372F6B65726E656C2F746972746F47
:1011D00073372F7061636B616765732F74692F7349
:1011E000797362696F732F6B6E6C2F5461736B2E02
:1011F000633A333834290000696E76616C69642083
:101200007461736B206F626A65637420307825782F
:101210002028633A2F74692F73696D706C656C694F
:101220006E6B5F6363313378785F636332367878EF
:101230005F73646B5F365F34315F30305F31372FFF
:101240006B65726E656C2F746972746F73372F7073
:1012500061636B616765732F74692F73797362695A
:101260006F732F6B6E6C2F5461736B2E633A343532
:1012700038290000696E76616C6964207461736B53
:10128000206F626A65637420307825782028633A7D
:101290002F74692F73696D706C656C696E6B5F6319
:1012A00063313378785F6363323678785F73646B69
:1012B0005F365F34315F30305F31372F6B65726E70
:1012C000656C2F746972746F73372F7061636B6113
:1012D0006765732F74692F73797362696F732F6BEE
:1012E0006E6C2F5461736B2E633A343632290000D2
:1012F0007461736B203078257820737461636B2080
:101300006F766572666C6F772028633A2F74692F49
:1013100073696D706C656C696E6B5F636331337894
:10132000785F6363323678785F73646B5F365F34FF
:10133000315F30305F31372F6B65726E656C2F74A3
:101340006972746F73372F7061636B616765732F98
:1013500074692F73797362696F732F6B6E6C2F547E
:1013600061736B2E633A3437362900007461736BF6
:10137000203078257820737461636B206F766572F6
:10138000666C6F772028633A2F74692F73696D70CC
:101390006C656C696E6B5F6363313378785F636330
:1013A000323678785F73646B5F365F34315F30302C
:1013B0005F31372F6B65726E656C2F746972746F55
:1013C00073372F7061636B616765732F74692F7357
:1013D000797362696F732F6B6E6C2F5461736B2E10
:1013E000633A3438312900007461736B20307825FA
:1013F0007820737461636B206572726F722C205356
:1014000050203D20307825782028633A2F74692FAA
:1014100073696D706C656C696E6B5F636331337893
:10142000785F6363323678785F73646B5F365F34FE
:10143000315F30305F31372F6B65726E656C2F74A2
:101440006972746F73372F7061636B616765732F97
:1014500074692F73797362696F732F6B6E6C2F547D
:1014600061736B2E633A3438382900007461736BF2
:10147000203078257820737461636B206572726FF9
:10148000722C205350203D20307825782028633A54
:101490002F74692F73696D706C656C696E6B5F6317
:1014A00063313378785F6363323678785F73646B67
:1014B0005F365F34315F30305F31372F6B65726E6E
:1014C000656C2F746972746F73372F7061636B6111
:1014D0006765732F74692F73797362696F732F6BEC
:1014E0006E6C2F5461736B2E633A343934290000CB
:1014F00064656C657465206E6F7420616C6C6F77C9
:101500006564207461736B20307825782028633AF5
:101510002F74692F73696D706C656C696E6B5F6396
:1015200063313378785F6363323678785F73646BE6
:101530005F365F34315F30305F31372F6B65726EED
:10154000656C2F746972746F73372F7061636B6190
:101550006765732F74692F73797362696F732F6B6B
:101560006E6C2F5461736B2E633A39363629000046
:10157000696E76616C6964207461736B206F626A56
:1015800065637420307825782028633A2F74692F9A
:1015900073696D706C656C696E6B5F636331337812
:1015A000785F6363323678785F73646B5F365F347D
:1015B000315F30305F31372F6B65726E656C2F7421
:1015C0006972746F73372F7061636B616765732F16
:1015D00074692F73797362696F732F6B6E6C2F54FC
:1015E00061736B2E633A313331342900696E766151
:1015F0006C6964207461736B206F626A6563742028
:10160000307825782028633A2F74692F73696D70BC
:101610006C656C696E6B5F6363313378785F6363AD
:10162000323678785F73646B5F365F34315F3030A9
:101630005F31372F6B65726E656C2F746972746FD2
:1016400073372F7061636B616765732F74692F73D4
:10165000797362696F732F6B6E6C2F5461736B2E8D
:10166000633A3133363829006F7574206F66206D08
:10167000656D6F72793A20686561703D30782578C4
:101680002C2073697A653D25752028633A2F74698B
:101690002F73696D706C656C696E6B5F636331335A
:1016A00078785F6363323678785F73646B5F365F38
:1016B00034315F30305F31372F6B65726E656C2F60
:1016C000746972746F73372F7061636B61676573D0
:1016D0002F74692F73797362696F732F72756E74CB
:1016E000696D652F4D656D6F72792E633A373829B4
:1016F000000000000100000079AC00007DAC00009B
:101700005BFA000061010100ADFA00006DAD01005F
:10171000A5FB00008F020100A5FB000009050100E8
:1017200087FC00006DAD0100A5FB00008F020100E9
:101730000DFD00006DAD0100000000000000000084
:1017400081FE00006DAD01000000000000000000FF
:10175000F5FE00006DAD0100D7FF00006DAD01008A
:10176000F1FF0000B3070100130001006DAD01009F
:101770000000000000000000000000000000000069
:101780000000000000000000870001000D0A0100B9
:10179000A30001006DAD0100870001000D0A0100EA
:1017A000A30001006DAD0100F1FF0000B3070100CF
:1017B000E90001006DAD0100105465786173496E58
:1017C000737472756D656E74730000000000000024
:1017D00000002001FE0103000000000003002001C2
:1017E000FD0103000000000004004201B8170000E2
:1017F0000000000007003001FF01030000000000AE
:1018000011003003F05D002000000000FDFF210109
:10181000362A01000300000000002103B85D00200B
:1018200003000000FDFF2141AA3101000600000075
:10183000FDFF21812E360100000003000300060099
:1018400004000000FFFFFFFFFFFFFFFFFFFFFFFFA0
:10185000FFFFFFFF000000003D200100010000002D
:101860003D200100020000004BB800000280000093
:1018700049B800000300000095B800000400000013
:10188000DFB800000480000053B90000050000002C
:1018900055B9000006000000E3B900003100000067
:1018A0002DBE000033000000D1C000003400000055
:1018B00099C10000FFFF000000000000FFFFFFFFD4
:1018C000FFFFFFFF8F000100BB1F0020870001000A
:1018D000B91F002035002800B05400202800010066
:1018E0009E1F0020290001009F1F0020840004008B
:1018F00088470020860001005D1A00202A000100B0
:10190000A01F00202B000100A11F00202C000100BF
:10191000A51F00202D000800E01D00202E00010062
:10192000A61F00202F000100A71F0020300001008B
:10193000A81F002032000100FE5D002033000100DE
:10194000FF5D002034000100A91F002036000100C7
:10195000005E002038000100AA1F002039000100AD
:10196000A41F002083000200921F002063000100DA
:10197000045E002065000100A21F00206D00010030
:10198000055E0020710008008C4700206600010001
:10199000B81F002043000100B31F002044000200D4
:1019A000881F002045000100B41F002046000200EF
:1019B0008A1F0020470008009447002048000100CB
:1019C000B51F00204B000100B61F002004000100DD
:1019D000BA1F0020A1000100C01F00203700010035
:1019E000BF1F002088000100BC1F00203C00010038
:1019F000AB1F00203D000100AC1F00204900020089
:101A00008C1F002067000100065E00204D000200D0
:101A10008E1F00204E000100B71F00204F00020063
:101A2000901F00203E000100B11F00205100010066
:101A3000015E002052000100AE1F00205300010093
:101A4000B01F002054000100025E002000000000D2
:101A500000000000001610000018151002000224FB
:101A6000145800001000000052616E646F6D5F73C7
:101A70006565644175746F6D6174696328292066BA
:101A800061696C656400000041455343434D206F1C
:101A900070656E206661696C656400004145534560
:101AA0004342206F70656E206661696C656400005A
:101AB00054524E47206F70656E206661696C656494
:101AC00000000000FFFFFFFFFFFFFFFF713D01006F
:101AD000515B0100FD8B0100C3780200E997010012
:101AE000F9DD0000C9790200FFFFFFFFFFFFFFFFE4
:101AF0000A0000006B690100020000006764010039
:101B00000500000005660100070000007765010080
:101B10000C0000003F5F01000D0000005D6101004E
:101B2000FF000000000000000000000002000000B4
:101B3000020000000A000000020000000200010094
:101B40000000000000000000000000000000000095
:101B50000000000000000000000000000E00000077
:101B600000A6AAACA4A9A9A399B19ABCB6A80000E2
:101B700002040201010101090200000031311719BC
:101B80001A21241B1D1F3131333100003131181946
:101B90001A22311C1E203131343100000300710043
:101BA00030016000110070003102200350048000F9
:101BB0000700100061000000140063007300720051
:101BC0006200430000001300060000000000040053
:101BD00012000000000000000000040004003700B4
:101BE00037003C02440000000000000000006500D7
:101BF00000003500810000000500000083000000A7
:101C0000660000000000080009000A000B00000048
:101C10000101710101010101110101013101010104
:101C2000010180010001100161013B00140063010A
:101C300073017201620143010001130106013D01BC
:101C4000350004011201000100010001000104013E
:101C50000401330133013C0144013201360000012B
:101C600000016501000135008101000105018201CB
:101C700083010001660100010001080109010A0158
:101C80000B010000030271023001600211027002B8
:101C900001020202020280020002100261023A0006
:101CA00041006302730272026202430200021302E5
:101CB00038000002000204021202000200020002C8
:101CC000000204020402370037003C024402000212
:101CD00039000002000265020002350281020002A2
:101CE000050282028302000266020002000208026C
:101CF00009020A020B020000010371030103010340
:101D00000103010301032203020301030003100383
:101D10000003000300030003000300030003420369
:101D20000003240306030003000304031203250336
:101D30002303250323030403040300030003000318
:101D4000440300030003230300036503210035035C
:101D500081030003050300030003000300032503C0
:101D60002303080309030A030B030000030471049F
:101D70000204600411047004020402040104020459
:101D80000004100461040004140463047304720466
:101D90006204430400041304060400040004040461
:101DA0001204000400040004000451046400000450
:101DB000000400044404000400040004000465045A
:101DC0000004350481046400050400048304000455
:101DD000660400040004080409040A040B0400005B
:101DE00000000500BD00B700B100BC001C003000C1
:101DF0003800080038010200000120181A18182CB9
:101E000034041E000C0E020B040B0A070800110F0D
:101E100088B22400881300001000000000000001B8
:101E2000C003000080070000000F0000001E00003B
:101E3000003C00000078000000F0000000E001001D
:101E400000C003000080070000000F0000001E001B
:101E500000003C00000078000000F0000000F000EE
:101E60000000000000000000000000000000000072
:101E70000000000000000000000000000000000062
:101E8000000000000000000000BE040A00BE0208BE
:101E90008E0000008E0001008E0002008E00030004
:101EA0008F0000018F0000028F0000038E000104EC
:101EB0008E0000058E0008048E00000489000006D4
:101EC000500000007F0001003F0004003F000200BE
:101ED0003F0001007F0002008E0002048E0001021C
:101EE0008E0001015DE7020065E702006BE702007A
:101EF00097E70200AFE70200F1E7020003E8020003
:101F00006DE80200ABE80200B3E80200F1EA02006B
:101F10006FEB0200E5EB020011EC020023EC020083
:101F200059EC02006DEC02008BED0200CFED0200D7
:101F3000D9ED020039F30200AFF302005DF60200B2
:101F400067F6020035F802001BFB02006140002129
:101F50008D40002199400021FF4000216F41002168
:101F6000074C657900F009F861796940490703D5A4
:101F70000121044A8903116070BD70B50249084708
:101F800080030021081104402D59000000F00AF8D8
:101F900000480047577F000000F00AF8004800475B
:101FA0001B880000806B0C490007000F48717047C8
:101FB000094A0A4918235079CB56497EC0188142F4
:101FC00001DD084602E00F2800DD0F20D189090954
:101FD00009010143D1817047E002002188000021FE
:101FE00010B53348314C8047012807D02034217D7B
:101FF000002903D101212F4A0905916010BD07284E
:1020000001D02D4A10472D4A4A60C87270470122FC
:102010002C4B02212A481847274810B5F830804732
:102020002948406A00280DD128490A20085600286E
:1020300009DA401C07D008462038406A2449884203
:1020400000D1804710BDFFF7E2FF10BD0021224BF9
:10205000204A0846184701202049400208602048CD
:10206000FB2201781140017013480C30004710B575
:102070001C49884715492039012807D0020404D596
:102080000020088518484862012010BD4A6A0A4BA2
:102090000C339A4201D1154A05E00B494A6A144BA8
:1020A0009A42F2D1134A4A6210BD00006001002139
:1020B00075A6020000110440A9910200E140002130
:1020C000060800009F0600000801002154010021BD
:1020D0006392020019410021B5B4020080E100E0E2
:1020E00080030021F79602000F4100215741002193
:1020F000699502004D410021000000000000000031
:1021000000000000000000000000000001000000CE
:1021100000C20100030000000000000001020003F3
:1021200002000103F8B505000F001600142001F0AD
:102130003DF80400002C1CD0DFF8BC1608682060B5
:102140000C606560A760322020730120607301205D
:10215000A0732661287800280BD02878F12808DAA7
:102160000868DFF898160860606801F0C8FA6168CE
:1021700048702000F2BD10B50400207800F0CBFAC2
:10218000002801D002200AE0002200212000FFF7F1
:10219000C9FF002801D1102000E00020C0B210BD0E
:1021A00038B5DFF854361968002923D019680A00B9
:1021B0004C6824780500EDB2AC4206D1086818607E
:1021C000080000F0F7FF002015E0116801E00A00A8
:1021D000096800290CD04B681B780400E4B2A342C4
:1021E000F5D108681060080000F0E4FF002002E06C
:1021F000022000E0012032BD2DE9F04105000E0073
:10220000170098462800C0B200F093FA0400002C92
:1022100010D0062000F08CFC010000290AD0FD201F
:10222000087081F801808D708F80CE7060680078B2
:1022300000F0A7FCBDE8F081F8B505000E0017001E
:102240002800C0B200F075FA0400002C12D008205B
:1022500000F06EFC010000290CD00798069AFE23BE
:102260000B7048708D70CA700E71CF8060680078F6
:1022700000F087FCF1BD2DE9F04F85B006000F009E
:10228000904699460024DFF8700505685FF0FE0A65
:10229000307810F00C000C2816D1FE21B08801F027
:1022A0008FFC82465046C0B2FE2800F08B8050461C
:1022B000C0B200F03EFA0400002C00F083802078C9
:1022C00000F029FA050015E0B078FF2803D1002DB1
:1022D00010D06C680EE0B07800F02BFA04000028F3
:1022E00008D0207800F017FA050003E0207800F00D
:1022F00012FA0500002C65D04FF6FE7BA868002876
:102300000AD021780220AA68904700280AD0B0F8A5
:1023100000B000F04FFF05E0A068002802D0A068E0
:10232000B0F802B030891FFA8BFB58450DD02078E9
:10233000002802D13089002807D0207800281ED03C
:1023400030894FF6FF71884219D196F802B0207893
:10235000B0709DF844000490109803909DF83C00E4
:1023600002909DF838000190CDF8009043469BB252
:102370003A002100300000F028F886F802B03078EA
:1023800010F00C000C2811D15146C9B2B08801F0F0
:1023900017FC82465046C0B2FE2813D05046C0B249
:1023A00000F0C7F90400002CA0D10BE0B078FF28A2
:1023B00006D12D68002D01D06C689BE7002499E7B9
:1023C000002497E705B0BDE8F08F2DE9F74F82B004
:1023D0008146984699F814003030D9F810100191D0
:1023E000C0B280B200F0A4FB0400002C4FD0129DBC
:1023F000DDF844A0109E0F9FDDF838B0ADF80080E6
:102400000499DDF80C801A202070B9F8040060806F
:10241000B9F80600A080A01D00F0F6F999F80300B5
:10242000E07398F80000207599F80C0060759BF82F
:102430000000A0759BF80100E0759BF80200207673
:102440006676C4F81CA084F82070B9F81A00A0853C
:10245000B9F80A006082BDF80000208299F81400E3
:10246000A08484F82E50A08C002808D014F13000ED
:10247000A062A28C0199A06A00F08EFE01E000200B
:10248000A0622100D8F80400007800F07AFB05B0C3
:10249000BDE8F08F2DE9F0418AB00C0016001F0056
:1024A000002C01D1022007E1129D804698F8080017
:1024B0008DF80200280716D598F80800022801D0E8
:1024C0000220F9E001F0F3FFB8F8001080B2814279
:1024D00009D003220121B8F8000003F0C9FF002849
:1024E00001D0CD20E8E098F80800022803D098F841
:1024F00008000F281BD1B8F8000002F076FC002875
:102500000FD00F2088F8080098F808008DF80C000C
:1025100098F80800032818D1414601A804F0EBF808
:1025200017E098F808000F28EED10220C4E098F8D0
:1025300008000328E8D098F808000128E4D098F8AB
:1025400008000028E0D00220B6E0B8F80000ADF89E
:102550000400A80704D54FF6FF70ADF814001AE088
:102560000020ADF81400200000F00CF90200002853
:102570000AD021780220904700280CD00188ADF8BD
:10258000141000F017FE06E0A068002803D0A06831
:102590004088ADF814000020ADF81C00E8060DD509
:1025A0009DF80C000F2809D09DF80C00012805D0DB
:1025B000BDF81C0050F00400ADF81C00280605D53D
:1025C000BDF81C0050F01000ADF81C00680609D5DD
:1025D000BDF81C0050F00100ADF81C0001208DF882
:1025E000010002E000208DF80100680705D5BDF864
:1025F0001C0050F04000ADF81C0000208DF80000D9
:10260000A80603D504208DF81F0003E07C4800785D
:102610008DF81F001398119D10992A788DF81E20AF
:1026200022788DF80E2098F809208DF80F20ADF84B
:102630001260ADF8167006918DF82000207800F039
:102640006AF80100002905D00869002802D001A815
:1026500009698847684600F0A2F880B2BFB2B84264
:102660000AD268490868002804D001A80968884788
:10267000070005E0022703E001A804F041F8070085
:102680009DF80C0002280ED101F011FFBDF80410D6
:1026900080B2814207D13B00DBB2320092B229788E
:1026A0002078FFF7A9FD3800C0B2002802D12878B1
:1026B000401C28703800C0B20AB0BDE8F081F8B5FF
:1026C00084B004000D0016001F000E990F9AC9B2C5
:1026D000208803F081FC0100C9B2002912D19DF8C5
:1026E000340003909DF8300002900B9801900A98F6
:1026F00000903B009BB2320092B229002000FFF70D
:10270000C9FE05E0C0B2052801D1022000E010207A
:10271000C0B205B0F0BD01003748006800E00068B5
:10272000002805D0426812780B00DBB29A42F6D13D
:10273000704780B5C0B2FFF7EEFF002801D04068B7
:1027400000E0002002BD38B504000D002800C0B232
:10275000FFF7E1FF02000021002A0ED09068002858
:1027600007D02900C9B2012092689047206001215A
:1027700005E050688068206001E0002020600800CB
:10278000C0B232BD1C49096800E00968002904D0C4
:102790004A688242F9D1886800E00020704710B58D
:1027A0000178012901D1082400E00024401C04F034
:1027B000D3F8041B2000C0B210BD0F4801680020F0
:1027C00001E0401C09680029FBD1C0B2704710B479
:1027D000094A13680CE05A6814780A00D2B2002A39
:1027E00003D02200D2B2002A01D00470401C1B6822
:1027F000002BF0D110BC70478C280020F828002056
:10280000941F00200455002010B50400087A20729F
:10281000087A032803D1200003F06DFF01E0088847
:1028200020800020608110BD10B50C00C0B2FFF701
:1028300072FF002804D1322020700120607005E072
:10284000022210F10C01200000F0A6FC10BD10B512
:102850000C00C0B2FFF75FFF002801D1022005E0A5
:10286000022221000C3000F097FC002010BDE8038C
:10287000F8B5DFF86448207801283FD0DFF85C28FD
:10288000DFF85C08800880001060DFF85858DFF837
:1028900058181068091A2960DFF85068106830600D
:1028A000116802E000200860091D13682868C31839
:1028B0009942F7D330682968890800EB8100001F2E
:1028C000002101603068E82101603068E830296843
:1028D00089088900EC390160DFF81478386000203D
:1028E00000F00DF8DFF80C180860306838602868D0
:1028F000001FDFF80418086001202070F1BD2DE9E9
:10290000F0410700002500263F1D17F003010800D5
:10291000C0B2002804D03F1D38000F00FFB2C71B13
:10292000DFF8D88700F04AFCC8F80000112F03D266
:10293000DFF8BC07046802E0DFF8B8070468216824
:1029400005E0012625000C442168002916D0002945
:1029500003D591F000410026F5E73000C0B2002811
:1029600009D02A68206882182A602868B842EAD309
:102970002C00216803E0B942E3D300E00024002CDE
:1029800019D0C91B04290BD304EB0700016057F0D1
:1029900000402060DFF860070168CF1B076009E096
:1029A000DFF854170A682068121A0A60206850F08D
:1029B00000402060241DD8F8000000F006FC200034
:1029C000BDE8F08138B50400002C24D0DFF82C5786
:1029D00000F0F4FB2860211F0868002808D4DFF805
:1029E00020070168491C0160286800F0EEFB12E036
:1029F000086820F000400860DFF8FC2613680868CB
:102A0000C3181360DFF8E8060268914200D2016043
:102A1000286800F0DAFB31BD2DE9F04100240025E3
:102A200000260027DFF8D48600F0C8FBC8F80000B5
:102A3000DFF8C00602680CE00E000125140007E074
:102A4000002913D591F000410025B74200D237008C
:102A50000A4411680029F3D1B74200D23700D8F8F0
:102A6000000000F0B2FB3800BDE8F0812800C0B2E1
:102A70000028E1D02068081820608E19E8E710B51A
:102A80000400DFF8600600682060DFF86C0600686C
:102A90006060FFF7C1FFA060A068092803D3A068A9
:102AA0000838A06001E00020A06010BD80B5FFF7ED
:102AB000DFFE4BF6BE2002BD80B50800FFF71FFF0A
:102AC00002BD80B50800FFF77DFF01BD02B5684675
:102AD000FFF7D5FF01BDF0B4DFF828361C780F2CC6
:102AE0001EDA1824DFF820561E781F786743EE554B
:102AF0001E7866432E447060187860432844C16095
:102B00001878604328440021816018786043284485
:102B100000210174187804FB00F405EB0400426105
:102B20001878401C18701878401EC0B2F0BC70476E
:102B300038B504000025200080B2002801D1002013
:102B40000EE0200080B20C3000F030FB002806D0F0
:102B5000002101600481FF21817210F10C05280021
:102B600032BD80B5002801D1052009E010F8021C13
:102B7000FF2901D0042003E00C3800F01BFB0020EB
:102B800002BD2DE9F84306000C00002C01D1052000
:102B90002CE0002500E06D1C2800DFF8681509789E
:102BA000C0B2884221D21827DFF85C852800C0B265
:102BB000784318F800003100C9B28842EBD100F028
:102BC000FDFA81462100EDB27D4308EB0500083097
:102BD00000F01DF94FF400413000C0B200F071F870
:102BE000484600F0F2FA002000E00320BDE8F2833E
:102BF000F8B505000E00002400F0E0FA002100E026
:102C0000491C0A00DFF8FC341B78D2B29A4219D270
:102C10001822DFF8F4340F00FFB25743DF5DAC46F3
:102C20005FFA8CFC6745EBD1C9B2514319448C68FB
:102C300001E054F80C4C002C04D021783200D2B2C0
:102C40009142F6D100F0C1FA2000F2BD2DE9F04129
:102C50000600002400252AE04FF400412800C0B2FD
:102C600000F02FF822E01827DFF89C842800C0B27B
:102C7000784318F800003100C9B2884216D1280004
:102C8000C0B278434044083000F004F90400280042
:102C9000C0B207FB00F708EB070080680028DBD113
:102CA0004FF400412800C0B200F070F86D1C2800FD
:102CB000DFF850140978C0B28842D4D32000BDE8B0
:102CC000F0812DE9F04704000D005FF003095FF08B
:102CD000000831E01826DFF830744046C0B2704377
:102CE000385C2100C9B2884224D100F067FA8246DC
:102CF0004046C0B27043384440694146C9B271434E
:102D0000394449690968294301604046C0B27043AB
:102D10003844C068002808D04046C0B206FB00F620
:102D200007EB0600C06805F01BFA5FF0000950468B
:102D300000F04BFA18F101084046DFF8C813097893
:102D4000C0B28842C6D34846C0B2BDE8F08738B5A5
:102D50000400002512E01820DFF8AC132A00D2B2DC
:102D600042430A445268A24207D12A00D2B200FB71
:102D700002F00844C06805F0FAF96D1C2800DFF87D
:102D800084130978C0B28842E5D331BD70B506001E
:102D90000D00002400E0641C2000DFF868130978AF
:102DA000C0B2884232D23000C0B2FF280AD0DFF869
:102DB00058132200D2B218204243885C3100C9B2B5
:102DC00088420FD03000C0B2FF28E4D105F09AF954
:102DD000CD4A2300DBB218214B4302EB03014968C3
:102DE0008142D8D100F0EAF91821C74A2300DBB2AA
:102DF0004B4313445B69E4B24C4302EB0401496961
:102E0000096831EA05051D6000F0DFF970BD38B5CD
:102E100005000C0000F0D2F9002C11D0002144F87C
:102E20000C1C2968002901D12C6009E02A6801E006
:102E300052F80C2C52F80C1C0029F9D142F80C4C19
:102E400000F0C3F931BD2DE9F84304000D00160070
:102E500000275FF0000800F0B1F9814620680028E3
:102E600008D0216802E051F80C1C7F1C51F80C0CB2
:102E70000028F8D1F6B2B74205D229002000FFF7AA
:102E8000C6FF5FF00108484600F09FF94046C0B217
:102E9000BDE8F28338B50400002500F08FF9216801
:102EA000002909D0256855F80C1C2160002145F83F
:102EB0000C1CFF2105F8021C00F087F9280032BD28
:102EC000F8B506000F000024002500F077F9002176
:102ED00000E0491C0A008B4B1B78D2B29A4231D2D7
:102EE0001822894B8C465FFA8CFC02FB0CFC13F811
:102EF0000CC0B6465FFA8EFEF445EAD10C00E4B28F
:102F000054431C44A46802E0250054F80C4C002CE7
:102F100018D02678BC465FFA8CFC6645F4D1002DAB
:102F200006D1C9B25143194454F80C2C8A6003E00D
:102F300054F80C1C45F80C1C002144F80C1CFF2113
:102F400004F8021C00F041F92000F2BD38B504007D
:102F50000D0000F033F9216845F80C1C256000F0E5
:102F600034F931BD70B505000C00160000F026F9EB
:102F700029688C4203D154F80C1C296003E054F8F2
:102F80000C1C46F80C1C002144F80C1CFF2104F812
:102F9000021C00F01AF970BDF8B5020000240023ED
:102FA00014E0002411E000201F00FFB26F433744FB
:102FB0003874E4B21800C0B205FB00F506EB05005A
:102FC000007C0443002CECD001245B1C18004D4D08
:102FD0002D78C0B2A8420FD218254B4E1800C0B2AF
:102FE0006843305C1700FFB2B842E2D10800C0B2BB
:102FF0000028D8D00120D7E72000C0B200280DD18A
:10300000424D2878012816D1012007F0FEFF02204A
:1030100007F0FBFF2878401E28700CE03B4D287815
:10302000002808D1012008F056F8022008F053F8D3
:103030002878401C28702000C0B2F2BD80B5010085
:1030400088684968884701BD2DE9FF4106000F00E7
:1030500090461C00002C01D102203AE02068002894
:1030600020D10C2000F0A2F80500002D01D108208D
:103070002FE0684604F06BFE0020019000208DF8E0
:10308000000002956A463100214804F021FE2860C4
:103090006F60C5F808802868002801D1082018E072
:1030A00025600EE0256800F089F80400286804F027
:1030B0004AFE002802D0286804F058FE200000F0E4
:1030C00084F83100286804F049FE286804F04AFEBC
:1030D000002004B0BDE8F081E75D0020183E00202C
:1030E000575E0020203E0020FF3B01201C3E0020B8
:1030F000083E00200C3E0020103E0020043E002030
:10310000143E0020E65D0020983C0020E85D002091
:103110003D30000070B50400002C06D02068002867
:1031200003D020680068002801D1022017E026683B
:1031300000F044F80500306804F005FE002802D0D5
:10314000306804F013FE306804F0E3FD300000F056
:1031500031F800202060280000F037F8002070BD12
:1031600080B5002805D00168002902D0006804F06D
:10317000FDFD01BD10B413005A1E002B09D0030041
:10318000581C0C00611C1B782478A342F3D000204B
:1031900000E0012010BC704703E00B780370491C6D
:1031A000401C13005A1E002BF7D1704780B5FFF763
:1031B000A6FB02BD80B5FFF705FC01BD80B504F09C
:1031C0000EFEADF80200009802BD01B568464088C9
:1031D00004F03FFE01BD80B5022100F002F880B28C
:1031E00002BD0A00D2B2012A01D1007829E00A000A
:1031F000D2B2022A05D101784078000250FA81F05B
:103200001FE00A00D2B2032A09D1017842781202E3
:1032100052FA81F1807811EB0041080011E0C9B247
:1032200004290CD101784278120252FA81F1827895
:1032300011EB0241C07811EB0061080001E05FF082
:10324000FE3070470170401C0A00120A0270401CD8
:103250000A00120C0270401C090E0170401C7047DD
:1032600030B4002801D1002012E0002300E05B1CF4
:103270001C001500E4B2EDB2AC4208D21C00E4B26E
:10328000045D0D00EDB2AC42F1D0002000E0012061
:1032900030BC704780B508F0BFF980B202BD200095
:1032A0000021DFF82C18C97A090701D5012029E08F
:1032B0000100C9B2FF2904D1DFF8181808700020F6
:1032C00020E00100C9B200291BD00100C9B2F129D8
:1032D00017DADFF80418096800E00968002910D03F
:1032E0004A6812780300DBB29A42F6D149684978FD
:1032F000002904D0DFF8DC170870002002E002206B
:1033000000E002207047DFF8CC0700787047DFF854
:10331000CC17DFF8C40700680860DFF8B82710781A
:10332000FF2803D111E008680068086008680028D9
:1033300020D008684068007813789842F3D1086874
:10334000406818E00868006808600868002811D024
:103350000868406800780028F4D008684068007861
:10336000F128EFDA0868406840780028EAD0086859
:10337000406800E00020704730B587B00021002190
:10338000009108F0A7FF0400002C43D0FFF7BFFF17
:10339000DFF84C576188287800F084FB0090009893
:1033A000002834D00098007B812830DB207800286A
:1033B0002AD16088ADF8060004208DF80400211D94
:1033C00002A809F0D9F901A809F00BFB002815D1D2
:1033D0000020DFF810170870DFF80C474021207834
:1033E00009F0ECFB280000F00BFA4FF48041207844
:1033F00009F0E4FB0C2000F0FBF90BE06A46618861
:10340000012000F021F805A8FF2000990873200092
:10341000FFF7D0FE07B030BD10B50020DFF8C416AE
:103420000870DFF8C4464021207809F0C7FBDFF8B8
:10343000BC060AF003FF4FF48041207809F0BEFB80
:103440000B2000F0D5F910BD2DE9F74F8AB004002C
:103450005FF0010B0FE028680068286028680028EA
:1034600009D02868406800780028F4D028684068AF
:103470000078F128EFDADFF864562868002800F0B9
:10348000E6800026286847684FF6FF78DFF8409608
:10349000B9F8080040450DD0DFF8542601213878EE
:1034A0000BF0F9F8B9F80800ADF8100001208DF81C
:1034B00018000BE003208DF818002000C0B200288F
:1034C00004D004A9BDF82C0009F088F95FF0000AC7
:1034D0000AE05846C0B2002804D101262000C0B23C
:1034E000002823D01AF1010A5046B968097BC0B2FE
:1034F00088421BD2DFF8E805012103912100C9B2FF
:1035000002910178019104A900918368C279B86899
:1035100000695146C9B230F81110387800F035F919
:1035200083465846C0B2B228D3D1FFE75846C0B24E
:10353000B22837D03000C0B2002803D02000C0B27B
:1035400000282FD05FF0000A0AE05846C0B20028D9
:1035500004D101262000C0B2002823D01AF1010AAC
:103560005046B968C979C0B288421BD2DFF87005ED
:10357000002103912100C9B202910178019104A9AF
:1035800000910369027BB86880685146C9B230F87F
:103590001110387800F0F9F883465846C0B2B228C6
:1035A000D3D1FFE7F6B2012E2DD12000C0B2002802
:1035B00004D0FF200C990968087303E080200C995F
:1035C00009680873B9F80800404520D0BDF82C0000
:1035D000ADF81C0002208DF82400DFF80405007807
:1035E0008DF825000020039000200290012001901A
:1035F000DFF800050090B9F80830002207A93878F4
:103600000DF0F7FA03E0FF200C990968087358469B
:10361000C0B2B22816D10020DFF8C8140870DFF855
:10362000C8444021207809F0C9FADFF8B40400F05A
:10363000E7F84FF48041207809F0C0FA0C2000F040
:10364000D7F804E0DFF88C040078FF2802D00DB032
:10365000BDE8F08F286800682860FFE670B586B086
:103660000400002000900025FFF751FEDFF86C04F5
:10367000006840684078C00704D4DFF8640400F0B4
:10368000BFF839E0A0694078A16989780902081873
:10369000ADF80C0002208DF81400A0690079BDF887
:1036A0000C10C0B200F0FEF900900098002825D060
:1036B000DFF82C64300000F0A3F83100A069001D91
:1036C00008F0DCFE01A90098008809F087F80028BE
:1036D00001D0012501E00098066101A86A46BDF805
:1036E0000C102800C0B2FFF7AFFE0098007BFF2847
:1036F00002D1300000F084F806B070BDFCE72DE97F
:10370000F0410500002418273026DFF8EC834346FB
:103710003A00D2B2A8688168A868C07908F072F847
:10372000C0B2012801D154F0020443463A00D2B29B
:10373000A8680169A868007B08F064F8C0B2012895
:1037400001D154F00104DFF8B4733B003200D2B26F
:10375000A8688168A868C07908F054F8C0B2012848
:1037600001D154F001043B003200D2B2A8680169D3
:10377000A868007B08F046F8C0B2012801D154F0D7
:1037800002042000C0B2BDE8F08173B5040015004A
:103790001E000999C9B2BDF8040000F046F90028DE
:1037A00001D0B12023E001AB012231002800C0B2DA
:1037B00008F028F8C0B2002801D1B12017E008981D
:1037C000C0B2002812D0DFF83853286800280DD086
:1037D000079A069901A800900123D2B22000C0B236
:1037E0002C68A047002801D1B22000E0002076BD5F
:1037F00080B5B74988720121062009F03EFD01BD60
:1038000010B50400A068002804D0A068FFF7D2FC1F
:103810000020A0602069002804D02069FFF7CAFCBE
:103820000020206110BDB7490860704770B50500E1
:103830000C00002D17D0AB4E3078002802D10020AC
:10384000287010E04021A848007809F0EAF93278A1
:10385000521E0F214A4300F2E7304FF47A71B0FB59
:10386000F1F082182A70002C02D09E480078207057
:1038700070BDA5490860704718B58BB004000120E1
:103880004FF6FF70ADF8200002208DF82800FF20D1
:103890008DF829000DF058F90021079100210691BB
:1038A00000210591C0B204900020039001200290F5
:1038B00000200190012000900123032208A920008C
:1038C000C0B20AF02FFF04002000C0B2002807D1C8
:1038D00042F210724FF480418348007809F060F999
:1038E0002000C0B20CB010BD38B504007E4D4FF4BE
:1038F0008041287809F062F921007C480AF064FCD4
:1039000000280FD02168097A017221680988018096
:103910002168497A417221684989418100210173F6
:10392000002101614FF480412878FFF7CAF931BDC9
:103930003EB5684600210022002380E80E00734C4B
:103940002068002812D1694D286800F09FF8206097
:10395000206800282AD12868002803D10B20FFF70F
:1039600047FF02E00020FFF743FF5DE02068007B97
:10397000FF2809D02068007B000617D42068007B50
:1039800030F08000042811DB6149086800280BD161
:103990005648006800F07AF820602068002805D1B9
:1039A0000020FFF725FF3FE008682060012000F0BD
:1039B000A1FE0321484302004FF480414A480078A9
:1039C00009F0EEF853480078082821D020680088D4
:1039D000ADF800002068007A8DF808002068007BB0
:1039E000401C216808732068007B000607D500236F
:1039F00000220021206800880EF055FA0EE0002316
:103A00002068427A2068018868460EF0E3FA05E0F3
:103A10002068007B50F040002168087320684069EE
:103A200000F034F83A49086037BD10B4C9B2002933
:103A300014D01822002100E0491C0B001400DBB256
:103A4000E4B2A3421FD22C4B0C00E4B233F8143082
:103A50000400A4B2A342EFD1002015E030220021DF
:103A600000E0491C0B001400DBB2E4B2A3420AD20E
:103A7000224B0C00E4B233F814300400A4B2A34289
:103A8000EFD1002000E0012010BC704700E0406949
:103A9000002805D0017B31F080010429F7DA00E02D
:103AA0000020704710B402001048006800E0406930
:103AB00000280AD003880C00A4B2A342F7D1437AAD
:103AC0001400E4B2A342F2D100E0002010BC704721
:103AD000501A0020961F0020F8280020FC28002003
:103AE00028290020D85D0020D95D00200029002071
:103AF0006C1A0020641A002080000000B000000052
:103B00003C2900202029002024290020042900200D
:103B1000082900200C290020F8B506000F00140029
:103B200039883000C0B200F031F8002801D0B82048
:103B30002BE000F0D1F8AF490978C0B2884201D338
:103B4000B22022E01820FFF731FB0500002D01D143
:103B500010201AE0002028602E7112223900A81DC2
:103B6000FFF71AFBA4490868002801D10D6006E0A0
:103B7000096800E0096808680028FBD10D60E4B21C
:103B8000002C01D000F0EFF80020F2BD10B49A4AEA
:103B9000126800E01268002A0FD013790400E4B222
:103BA000A34203D00300DBB2FF2BF3D1D3880C0078
:103BB000A4B2A342EED1901D00E0002010BC7047DB
:103BC00030B40A00D2B2FE2A01D1012400E0002460
:103BD000894A136806E00A001D79D2B2AA4200D1D0
:103BE00001241B68002B0AD0DA880500ADB2AA4276
:103BF000F7D12200D2B2002AEDD0187900E0FE20E1
:103C000030BC704730B4030000207B4A12680BE0E0
:103C100014791D00EDB2AC4205D1D4880500EDB297
:103C200021F81540401C1268002AF1D1C0B230BC06
:103C3000704770B5704C2268002301E013001268D1
:103C4000002A17D015790600F6B2B542F6D1D5880C
:103C50000E00B6B2B542F1D1002B02D1106820603F
:103C600001E0106818601000FFF7A4FA00F07BF87C
:103C7000012000E0002070BDF8B505005E4E306800
:103C8000002405E0016821600768FFF793FA380017
:103C900000280CD001792A00D2B2914204D1002C24
:103CA000F0D101683160EFE704000068F0E700F050
:103CB0005AF8F1BD10B4020000204F49096806E02F
:103CC0000B791400E4B2A34200D1401C096800291A
:103CD000F6D1C0B210BC704700204749096801E026
:103CE000401C09680029FBD1C0B2704718B585B0E7
:103CF0001421FF226C4620000EF06AFE002400E032
:103D0000641C20003B490978C0B288420DD26B4642
:103D100014222100C9B289B208200EF08DFE0100E4
:103D2000C9B20A29ECD1C0B200E0002006B010BD33
:103D300018B585B01421FF226C4620000EF048FE15
:103D4000002408E06B4614222100C9B289B2082081
:103D50000EF0CEFE641C200026490978C0B28842CD
:103D6000F0D306B010BD30B585B0002522480468F8
:103D700012E020798DF800001222A11D0DF1020041
:103D8000FFF70AFA6B4614222900C9B289B208204B
:103D90000EF0AEFE6D1C2468002CEAD105B030BDDB
:103DA00038B586B00025002419E001A8009014233E
:103DB0000022210089B208200EF0CAFE00280DD191
:103DC0009DF80400FF2809D000220DF106019DF89E
:103DD0000400FFF7A1FE002800D16D1C641C200028
:103DE0000449097880B289B28842DED3280080B2C3
:103DF00007B030BDF2AE0200E4540020F0B587B049
:103E00000500002400204FF6FE7637000EF043FF39
:103E1000002801D011208AE0287F002818D0DFF880
:103E20005C0B01780078400150EA810028776988AE
:103E3000FF20FFF7ABFE00280AD001244FF6FF77E2
:103E4000E88A50F00400E882287F50F001002877CB
:103E5000688800F0CAFF002801D000206876A87E9C
:103E6000002803D1DFF8180B0078A8762878000620
:103E700004D5287810F00300287009E0E87E0028B7
:103E800006D1DFF80C0C0178E9760178491C017045
:103E9000287E012809D1DFF8F80BC07A002804D168
:103EA0002878002801D1002028762878012807D119
:103EB00028690078022803D1E88A50F04000E8829F
:103EC000A87D400601D4E4B2002C04A9280000F02B
:103ED000BEF80400380080B2B04200D16F88002CD8
:103EE00022D028788DF814000695688DADF816005C
:103EF00005A8039095F82C000290E88A0190687D4F
:103F000000909DF81030DFF8880BC28A390089B222
:103F1000200000F044F805002800C0B2102804D1A9
:103F20002000FFF747F900E010252800C0B207B0D5
:103F3000F0BD10B58EB0040001A834210FF032F9A5
:103F4000A088ADF810006088ADF80E00207D8DF8D7
:103F5000200020690B90207F8DF80900208DADF89E
:103F60001400207E8DF80A00607E8DF80800608DB8
:103F7000ADF8320094F82C008DF83400FF208DF855
:103F800000008DF801005FF0FF308DF80200002284
:103F9000694601A80FF09DF900200EB010BD2DE973
:103FA000F84F88B006000F00904699465FF0100A5F
:103FB0002420FFF7FBF801900198002842D0149CC0
:103FC000139DDDF848B08DF80090ADF802805FF0E9
:103FD000000824210022DDF8049048460EF0F8FC89
:103FE000DFF8AC0A808C01994881BDF80200ADF879
:103FF0001C0002200199087302200199087201989F
:1040000007809DF800000199C877019880F80DB0ED
:1040100001980662ADF80E508DF810B01598D0E9F1
:104020000023CDE905238DF81E404146C9B201A801
:104030000EF048FE012802D15FF0000A02E001986C
:10404000FFF7B8F85046C0B209B0BDE8F08FF8B538
:1040500005000C0008206870687F002802D068788E
:1040600008306870A87F002802D06878083068702F
:10407000287F002802D06878401C6870A879002842
:1040800006D06878297AC9B24900891C0818687076
:10409000287E002801D00E2600E00026DFF82C0A3A
:1040A000007801280BD12878012808D0DFF8240AED
:1040B0000078002803D0012085F8340002E00020B9
:1040C00085F83400297D6878411871182170287EA0
:1040D000002807D0DFF8B809007B0FF0C4FD217875
:1040E000401820702078752801DB002403E0207838
:1040F000FFF75CF80400002C54D0280000F054F8BE
:10410000207080B2000A60706888A070688880B2F1
:10411000000AE070A8882071A88880B2000A607147
:10412000A87EA071E87EE0710827687F002806D08D
:10413000296A3800C0B2204402F0DDFA0837A87FAF
:10414000002806D0696A3800C0B2204402F0D3FAD1
:104150000837A879002815D0287A3900C9B26054E8
:104160007F1C687A3900C9B260547F1C287A4200EB
:10417000E9683800C0B22044FFF70EF8287A400002
:1041800050FA87F7287F002804D0287F3900C9B269
:1041900060547F1C2A7D296968782044F6B2304437
:1041A000FEF7FAFF2000F2BD10B5040000F004FE97
:1041B0002178C0B251EA8001607E800110F0C00019
:1041C0000143207F002801D0012000E0002051EAB7
:1041D0000021207E51EA4021607F51EAC021A07F6A
:1041E00051EA0031A07951EA802194F8340051EA73
:1041F0004031080080B210BD2DE9F04106000F00EB
:104200001400012534210022A04640460EF0E0FBB8
:104210003800C0B2082801DA002094E02770307816
:104220007178090251FA80F0210080B200F08DF817
:10423000002800D00025B078F178090208186081C4
:104240003079717909020818A081B079A074F079E9
:10425000E07408206070E079002805D06078304470
:104260006061607808306070207A002805D060783E
:104270003044A061607808306070002084F820002D
:10428000002060626079002805D06078305C607141
:104290006078401C6070607F002834D00020607817
:1042A000411C6170C0B2305C84F820006078411C11
:1042B0006170C0B2305C84F8210094F8210094F859
:1042C000201088421DD2DFF88808007894F820106A
:1042D000884201D20C2701E094F82070DFF874883E
:1042E0003800C0B24200607806EB00014046FEF79D
:1042F00053FFC4F824806078FFB27900081860701A
:1043000001E00020607720786178884201D20020A7
:1043100019E060783044A06221786078091A21772A
:10432000A07900280DD0207F0E382077A06A0E30AB
:10433000A062DFF89C07007B0FF095FC217F081A34
:1043400020772800C0B2BDE8F08110F003028A7027
:10435000C0F38302CA70C0F381120A71020092B2E4
:10436000521212F001028A71020092B2121212F07D
:1043700001024A71020092B2921212F001024A77CF
:10438000020092B2D21212F00102CA71020092B27D
:10439000121312F001020A72020092B2521312F0CA
:1043A000010281F8312080B2800BC0B27047020058
:1043B00000209179002909D0DFF81417C97A002963
:1043C0000ED1917800290BD1012009E0DFF80037E8
:1043D000D97A002904D05189DA8A914200D001208B
:1043E000C0B27047F8B506000D001400307871783F
:1043F000090251FA80F0210080B2FFF7A6FFB078E1
:10440000F178090208186081307971790902081879
:10441000A081B079A074F079E07408206070E07930
:10442000002805D0607830446061607808306070A2
:10443000207A002805D060783044A0616078083088
:1044400060706079002805D06078305C60716078B9
:10445000401C60702000FFF7AAFF07003800C0B2C0
:10446000002818D1A079002806D160783044A062D5
:1044700060782D1A25770EE0607830440E30A06207
:10448000DFF84C06007B0FF0EEFB61786D1AB5F19A
:104490000E01081A20773800C0B2F2BD10B5DFF85F
:1044A00094492100E2200FF0C0FD200010BDDFF88C
:1044B0002006C08A7047DFF81806408B704780B529
:1044C00001004A200FF0B1FD01BD10B5DFF88409ED
:1044D00004780178491C01702000C0B20EF09AFDEA
:1044E000002800D000242000C0B20028EED0200018
:1044F000C0B210BD2DE9F04706008A4691469846A5
:10450000089D00240027514689B2300080B201F096
:1045100047F900280CD12900C9B2002908D14A4620
:10452000D2B2514689B2300080B201F077FA7FE012
:1045300000282CD02900C9B2002908D04146C9B2B0
:10454000002903D100210170012727E026E0414620
:10455000C9B2002913D181785FFA89F919EB0101F9
:1045600089B2490881708178002901D101218170C7
:104570004178002903D1DFF8E01809784170DFF8AD
:10458000DC1809788078814208D2012706E02800EB
:10459000C0B2012802D14046C0B20028EDB2012DC0
:1045A0002BD14046C0B2002803D04046C0B2EB2811
:1045B00004D10020DFF8A81808701EE04046C0B201
:1045C000E1281AD04046C0B2F12816D04046C0B209
:1045D0001A2812D05FFA88F8B8F1190F0DD0DFF859
:1045E00080080178491C01700178DFF82C291278C5
:1045F000914202D3012400210170FFB2002F03D1A8
:104600002000C0B2002813D0E4B2002C10D030003B
:10461000DFF8BC14498B80B2884209D1310089B2DD
:1046200001200EF0BDFF01214FF4005000F0A5F86D
:10463000BDE8F08710B4DFF8E4281278002A4BD1E7
:10464000C20707D5DFF884291160136A934201D1AC
:1046500000231362020708D5DFF870295160136A3E
:10466000141DA34201D100231362C20609D5DFF84D
:104670005C299160136A12F10804A34201D100235E
:104680001362820609D5DFF84429D160136A12F15A
:104690000C04A34201D100231362820709D5DFF87D
:1046A0002C299161136A12F11804A34201D100234D
:1046B0001362420709D5DFF81429D161136A12F198
:1046C0001C04A34201D100231362C20404D54FF499
:1046D0007A72DFF8F8385A61400409D5DFF8EC083F
:1046E0000161016A10F11002914201D100210162C1
:1046F00010BC7047C10703D5DFF8D008006830E070
:10470000010703D5DFF8C40840682AE0C10603D5D5
:10471000DFF8B808806824E0810603D5DFF8AC082C
:10472000C0681EE0C10403D5DFF8A008406918E0A6
:10473000810703D5DFF89408806912E0410703D5AB
:10474000DFF88808C0690CE0410403D5DFF87C0875
:10475000006906E010F4204F01D0002001E05FF076
:10476000FF307047002804D0DFF86018096A096834
:104770000160DFF85808808C704738B50022DFF8F8
:104780009C271278012A02D14CF6C0721040C9B29F
:10479000002905D0DFF834188A8C1043888405E09E
:1047A000DFF828188A8C32EA00008884DFF81C4879
:1047B000A08C000406D501208DF800006946522027
:1047C0000FF049FC00F02BF8002807D120620121EE
:1047D000DFF88809007808F0F1F91FE0216A002964
:1047E00004D00168226A1268914217D02062206AC0
:1047F0000068012806D10121DFF860090078FEF782
:1048000060FA0BE0DFF854590121287808F0D6F956
:10481000206A02680121287808F0C9F931BD81B009
:104820000020DFF8A827918C890464D4918C0904B6
:1048300005D5918C490401D512F110005BE0918CF3
:10484000002958D05FF0FF3000906846DFF8CC16A2
:10485000097800294BD192F82410C90704D51168B2
:104860000368994200D2100092F82410090704D579
:1048700051680368994200D2101D92F82410C906AD
:1048800005D591680368994201D212F1080092F8A7
:104890002410890605D5D1680368994201D212F126
:1048A0000C00918C490405D511690368994201D225
:1048B00012F11000918CC90405D551690368994221
:1048C00001D212F1140092F82410890705D59169DC
:1048D0000368994201D212F1180092F82410490796
:1048E00005D5D1690368994201D212F11C006946CD
:1048F000884200D1002001B0704710B50024644AFE
:10490000742121200EF0C9F80A2801D154F00104C5
:1049100008F0DDF80A2801D154F00204DFF80C1980
:104920000868002805D0086880470A2801D154F09B
:104930000804FFF7DBF90A2801D154F0100410F045
:1049400075F90A2801D154F020042000C0B210BD2E
:1049500080B510F0C4FF4E4A742121200EF0EEF80D
:1049600008F0DAF8DFF82C190868002801D0086888
:104970008047FFF7DDF910F06DFA01BDB61F00208A
:10498000034B020038B50024414D2A007421212038
:104990000EF083F8002856D12B007422002121202C
:1049A0000EF022F900284ED1E88A4FF6FE718842B7
:1049B00049D0012495F82600082803D095F8260050
:1049C00004283DD101208DF80000694642200FF0F7
:1049D00042FB15F12F0143200FF03DFB15F12C0197
:1049E00047200FF038FB15F11C014A200FF033FB74
:1049F00015F11A014B200FF02EFB15F12401502068
:104A00000FF029FB15F1160153200FF024FB15F1CF
:104A10002D0154200FF01FFB15F11801E1200FF0BC
:104A20001AFBA87B000703D501208DF8000002E0E7
:104A300000208DF80000694652200FF00CFB02E0C8
:104A400010F04DFF002408F00FF8DFF84C1808684C
:104A5000002801D008688047FFF7A2F92000C0B203
:104A600032BD10B50400E00704D5094A74212120A5
:104A70000EF064F8200701D508F00CF8600706D5A1
:104A8000DFF818180868002801D00868804710BDB2
:104A90002455002078B585B004000D4880F8724098
:104AA000DFF8FC57DFF8FC676A463178280011F020
:104AB000BEFE8DF8124032782900684611F084FE5F
:104AC000290045200FF0C7FA06B070BDB11F0020C5
:104AD00024550020015E002070B50600DFF87C56EA
:104AE0004FF48061287808F069F80920DFF8701623
:104AF00081F826000020DFF8C4180870FFF7CEFC0C
:104B00000100706901F0E2FD012820D11020FEF7BC
:104B10000FF80400002C1AD002202070B06A4078F0
:104B2000B16A8978090208186080B06AC07860703C
:104B3000B1694A200FF08FFAB079002803D105201F
:104B4000DFF8F018087021002878FEF71AF870BD19
:104B500073CB01005C3B002038B5050002208DF8C6
:104B60000100684600F015F90400002C3FD02069D0
:104B70000421017000214170297A012903D1417873
:104B800051F020014170697A012903D1417851F037
:104B900040014170A97A012904D1417851F0800186
:104BA000417001E00120A076687A012806D168688A
:104BB000002801D00120607768682062E87A012827
:104BC00001D10120E082288800F00FF9002803D0ED
:104BD000E08A50F00400E0820120A077FFF75EFC3D
:104BE000606228886080200011F026FF00E010201D
:104BF000C0B232BDF8B584B005000E0000240E210D
:104C000000226F4638000DF0E3FEB06A407810F0E5
:104C10001F0F04D0D320C046C046002057E08106B5
:104C200002D501218DF80C10010602D501218DF865
:104C30000B10400602D501208DF80A009DF80A00ED
:104C4000012804D1F079002805D0746903E0307A96
:104C5000002800D0B469002C04D021000DF102001E
:104C600001F049FDB089ADF800009DF80A00012867
:104C700028D1DFF800180878002802D00878012829
:104C800004D1DFF8BC080078002818D00878002884
:104C900015D0FFF710FCB18980B281420FD1708925
:104CA00000F0A3F800280AD1002C0BD0FFF7F6FB88
:104CB00001000DF1020001F009FD002802D12800D9
:104CC000C0B204E068460EF067FC2800C0B205B030
:104CD000F0BD7FB504000D000E2100226E463000AD
:104CE0000DF076FE6889ADF80000A86A407881066C
:104CF00002D501218DF80B10010602D501218DF896
:104D00000A10400605D569690DF1020001F0F3FCB7
:104D100004E0A9690DF1020001F0EDFC20798DF8A5
:104D20000C0068460EF034FC7FBD18B58DB0040051
:104D30002068807AC0071AD5206841894FF6FE7036
:104D40000140206841816A4620680068C17F206870
:104D50000068006AFFF746FB002808D10A9800782F
:104D6000042804D169462000FFF7B3FFFFE70EB027
:104D700010BD010000200A00D2B2042A06D00A00A9
:104D8000D2B20A2A02D0C9B2032900D10120C0B28E
:104D9000704710B5382101700121817011F07EFE3D
:104DA0000400002C06D0012020700120A077FFF71E
:104DB00075FB6062200010BDDFF8A403807C7047A3
:104DC000DFF8AC1708707047DFF8A81701220A70E7
:104DD000020703D50A7852F002020A70800703D551
:104DE000087850F00400087070470200002000218D
:104DF00092B24FF6F873D21A032A0BD9121F05D0BC
:104E0000521E05D0921E07D1012105E0042103E0C6
:104E1000022101E00821FFE7DFF8582712780A4253
:104E200001D0022003E0C9B2002900D00120C0B2A5
:104E300070470000D854002080B50178002906D1C1
:104E40004168002903D0406801F061FE00E00020C5
:104E500002BD00000D5E00202ED90100981F002029
:104E60000F5E002010B4002100E0491C0A00D2B2FD
:104E7000032A12DADFF800270B00DBB202EB830310
:104E80005B880400A4B2A342EFD1DFF8F0060078FB
:104E9000C9B202F82100C5203BE0002100E0491C16
:104EA0000A00D2B2032A17DADFF8CC260B00DBB2F5
:104EB00002EB83035B884FF6FE74A342EFD10B0035
:104EC000DBB202EB83035880DFF8B0060078C9B28A
:104ED00002F8210000201CE0002200E0521C11001A
:104EE000C9B2032914DADFF890361100C9B213F8F9
:104EF00021100029F2D11100C9B203EB81014880D1
:104F0000DFF878060078D2B203F82200002000E033
:104F1000C72010BC704700009F1F0020035E0020C8
:104F20007FB504000D001226200080B2002801D1B8
:104F3000002049E020008A49C98A80B288420AD10B
:104F4000FFF7ACFA0100280001F0C0FB002801D1F6
:104F5000012600E0002600208DF80000ADF8024098
:104F6000684607F0A7FC00280CD001A807F012FC47
:104F7000012807D1012601A9280001F0A7FB00287C
:104F800000D000262900200080B200F014FC0100AF
:104F9000C9B20A2901D101260BE0C0B2A02808D16C
:104FA0002900200080B200F0F7FC200080B200F061
:104FB00098FD3000C0B2012804D10021200080B249
:104FC000C046C0463000C0B204B070BDB05400202E
:104FD00010B50400207A00280AD0A169A089FFF743
:104FE0009FFF012804D1A089FFF73CFF01200EE0BC
:104FF000E07900280AD061696089FFF791FF0128F4
:1050000004D16089FFF72EFF012000E0002010BDD1
:105010007CB504000D00012605208DF801006846CE
:10502000FFF7B7FE00280ED0016903220A70132291
:105030004A708C70220092B2120ACA700D714480BC
:1050400011F0FAFC06003000C0B276BD2DE9FE4337
:1050500006000F0090461D005FF0010904208DF846
:1050600001006846FFF795FE0400002C2DD0EDB23C
:10507000002D08D00120A077A780207850F0800074
:1050800020700020E07620690321017080F8018003
:105090008770BFB23F0AC770300080B2FFF7A5FE2D
:1050A00000280BD101A9300080B207F097FB00283F
:1050B00004D00120607701A8206201E00020607721
:1050C0006680200011F0B8FC81464846C0B2BDE8B9
:1050D000FE8370B504000D000126A06A4178A06A25
:1050E0008078A26AD27812021218207F042804D095
:1050F000D320C046C04600202DE00800C0B20028E2
:1051000002280AD9C01E07280AD90838012806D95A
:10511000801E03D0401E03D003E003E002E001E064
:1051200000E0002592B2C9B260890EF079FA608978
:10513000FFF75BFE00280DD0A07C02280ADBA089C7
:105140000749C98A884205D0F6B2012E02D128004B
:10515000C0B200E0002070BD00000000145E00201E
:10516000245500202DE9FE4305000F0090461E0047
:105170005FF001090A208DF801003800C0B2002854
:1051800008D19DF801003100C9B2490051FA80F000
:105190008DF801006846FFF7FCFD0400002C40D0AC
:1051A000206909210170401C0670017851EA4711FD
:1051B000017010F101094146484601F09CFA19F1CD
:1051C0000801FFB2002F17D100220A980EE0130049
:1051D000DBB230F813300B70491C1300DBB230F82F
:1051E00013309BB21B0A0B70491C521C1300370072
:1051F000DBB2FFB2BB42EAD30120A077FFF74EF942
:10520000606201A9280080B207F0E8FA002803D004
:105210000120607701A820626580200011F00CFC5D
:1052200081464846C0B2BDE8FE8300004829002000
:105230002DE9F04705000E0017009946DFF8848439
:10524000D8F80000002822D04846C0B240000E30F6
:1052500080B2FDF76DFC0400002C18D0DDF820A012
:10526000D4202070658026713900601D01F043FA5A
:1052700084F80D905FFA89F95FEA4902514614F10A
:105280000E00FDF789FF2000D8F800108847BDE820
:10529000F08700004C2900205029002054290020CC
:1052A0009C550020C51F00202DE9F84305000E0085
:1052B00090461F005FF0010903208DF80100684649
:1052C000FFF767FD0400002C1AD020690B21017044
:1052D000401C80F80080401C07700120A077FFF779
:1052E000DDF8606201206077266265800120A0768B
:1052F0000020DFF840150870200011F09DFB81466A
:105300004846C0B2BDE8F28370B5806A401C05789B
:10531000401C0478294A1470012151200DF00EFC24
:105320000120DFF810150870EDB2002D1BD1DFF859
:105330000C150878002808D1DFF8FC04097850F82B
:1053400021104FF47A70414307E0DFF8EC0409784C
:1053500050F821104EF660204143DFF8E404007855
:10536000B1FBF0F50AE0DFF8D004016A4EF66020E8
:105370004143DFF8CC040078B1FBF0F500214FF495
:105380008040FFF7FAF90E4E0221307807F016FC44
:10539000E0070AD529004FF48040FFF74BF90121BF
:1053A0004FF48040FFF7E9F906E0A00704D52A0092
:1053B0000221307807F0FBFB70BD0000015E002089
:1053C000145E002070B401000022002327E01800C2
:1053D000C0B205FB00F504EB0500008B82181DE050
:1053E0001C25DFF860441800C0B26843205A4FF60D
:1053F000FE76B04212D01800C0B268432044008B41
:1054000000280BD00800C0B20028E0D01800C0B2BD
:1054100005FB00F504EB0500002404835B1C180069
:10542000DFF8B4452478C0B2A042D9D3100080B2CE
:1054300070BC7047F65D002038B504000021DFF82D
:10544000A055286800E04068002805D002882300A5
:105450009BB29A42F7D10121C9B2002908D1082094
:10546000FDF7A4FE002803D004802968416028606D
:1054700031BD0000B91F00207CB50025DFF8606554
:10548000306801E06D1C40680028FBD12800C0B2E4
:105490004000FDF78BFE0400002C2AD0002130686C
:1054A00006E002880B00DBB224F81320491C406898
:1054B0000028F6D1DFF82C05B0F86E10C28A9142B0
:1054C0000AD100942B00DBB210F139020021B0F8B0
:1054D0006E00FFF7ADFE09E000942B00DBB210F187
:1054E00039020021B0F86E00FFF73CFE2000FDF706
:1054F00061FE11F05CFB73BD10B5DFF8E444206879
:1055000004E041682160FDF755FE20680028F8D1CD
:1055100010BD38B5DFF87C04848CDFF8C0542988CE
:105520008184290050200EF096FD2988200080B249
:1055300000F0A6FA2A880121002000F003F831BD0E
:10554000AC1F0020F8B504000D001600DFF800764F
:10555000386800280BD00620FDF7EAFA002806D0AC
:10556000D52101708470C570868039688847F1BD87
:10557000C31F00200C5E0020A4540020CA49020072
:1055800010B500240AE0DFF8BC122200D2B21C20C1
:10559000424301EB020000F0D3F8641C2000DFF866
:1055A00038140978C0B28842EDD300200EE0DFF84D
:1055B000F8154FF6FE720300DBB201EB83035A804D
:1055C00000220300DBB201F82320401C0100C9B215
:1055D0000329ECDB10BD70B4002200E0521C130064
:1055E000DFF8F4432478DBB2A3421ED21C23DFF899
:1055F000BC451500EDB25D43655B0600B6B2B54231
:10560000ECD11500EDB25D4325446D890E00B6B2B4
:10561000B54205D00D004FF6FF76ADB2B542DDD1F3
:10562000D2B25A4304EB020000E0002070BC704785
:1056300070B54FF6FF714FF6FE70FFF7CCFF0028F4
:1056400025D100241CE01C257E4E2100C9B26943EF
:105650003144897C002906D02100C9B26943314414
:10566000497C00290BD12000C0B26843305A00F0B9
:10567000A0FF2000C0B205FB00F506EB0500641C8E
:105680002100DFF82C251278C9B29142DBD370BD1E
:1056900010B4002000220BE06A4B1400E4B21C217D
:1056A0004C43195B4FF6FE73994200D0401C521CCC
:1056B0001100DFF8FC341B78C9B29942ECD380B2F8
:1056C00010BC7047A446002038B504000D00290026
:1056D00089B2200080B2FFF77EFF07E000F030F8CB
:1056E000290089B2200080B2FFF775FF0028F5D1AC
:1056F00031BD70B40022002101E0521C491C0B0096
:10570000DFF8D4422478DBB2A34216D21C23DFF8A0
:105710009C440D00EDB25D43655B4FF6FE76B542ED
:10572000ECD01500EDB20600ADB2B6B2B542E4D190
:10573000C9B2594304EB010000E0002070BC70477F
:1057400038B50400002C0BD01C21002225002800B5
:105750000DF03EF94FF6FE7020804FF6FF7060812D
:1057600031BD38B50400002512E01C2035492A005F
:10577000D2B242430A44528923009BB29A4206D0D5
:105780002A00D2B200FB02F00844FFF7D9FF6D1CDB
:105790002800DFF81C140978C0B28842E5D331BD77
:1057A00080B589B280B2FFF716FF002801D0103013
:1057B00000E0002002BD2DE9F84304000D000026A2
:1057C0005FF0000926E01C27DFF878804846C0B269
:1057D00078434044801C06F0DDFF002818D048467E
:1057E000C0B2784338F80000210089B2884201D164
:1057F00056F00A0629004846C0B207FB00F708EB3E
:105800000700801C00F062FF002801D056F0A006BF
:1058100019F101094846DFF898130978C0B28842A7
:1058200003D23000C0B20028CDD03000C0B2BDE8F5
:10583000F28300000E5E0020240B0000B01F002049
:10584000AF1F00204C3900202DE9F84F04000D0057
:1058500016005FF0000A0021012701224FF6FE79B1
:10586000C8460BE0FDF716FDC0B25FFA8AFA90FB5E
:10587000FAF10AFB11015FF0000A00223800C0B201
:10588000002800F08480002306E01800C0B20CFB62
:1058900000FC3EF80C805B1C1800DFF83CC19CF853
:1058A00000C0C0B260455AD25FF01C0CDFF8FCE2C9
:1058B0001800C0B20CFB00F03EF800004845EAD0EA
:1058C0001800C0B20CFB00F03EF80000A3461FFA1F
:1058D0008BFB5845DFD01800C0B20CFB00F03EF83F
:1058E0000000AB461FFA8BFB5845D4D01800C0B25D
:1058F0000CFB00F03EF80000B3461FFA8BFB584546
:10590000C9D01800C0B20CFB00F07044407C0028E5
:10591000C1D01800C0B20CFB00F07044407C0828D5
:10592000B9DA1800C0B20CFB00F07044407C0728C4
:10593000ABD01000C0B2012802D11AF1010AAAE7C7
:105940001AF1010A50468B46C0B25FFA8BFB5845EC
:10595000A1D3DBB20CFB03F33EF8030018E0504682
:10596000C0B200280AD00800C0B2002806D15046B4
:10597000C0B201287FF476AF01217CE7404680B2B7
:10598000484501D1002779E7404680B200E048460B
:10599000BDE8F28F245500202DE9F04104000D00F0
:1059A000002600E0761C30000B490978C0B288421E
:1059B00010D21C27DFF8F48129003000C0B27843F0
:1059C0004044801C00F082FE0028EBD0F6B27E43FB
:1059D00028F80640BDE8F08172CB0100BE5D0020D2
:1059E000A054002024550020010007200A00D2B254
:1059F0000D2A01DB01200FE00A00D2B2072A01DBE9
:105A0000032009E00A00D2B2032A01DB052003E0EB
:105A1000C9B2002900D10020C0B270472DE9F04181
:105A200006000F001500FFF703FE0400002C25D030
:105A30001C210022A04640460CF0CAFF2680678148
:105A40002800C0B2002801D0A57401E00120A07494
:105A5000DFF8600190F86C00012805D12800C0B281
:105A6000FFF7C2FF607401E007206074DFF83401C3
:105A70000078401C022190FBF1F02074BDE8F08119
:105A800070B504000E00002523E02A00D2B2424384
:105A90000A44528933009BB29A4219D02A00D2B2EA
:105AA00000FB02F00844FFF74BFE11E01C20DFF87A
:105AB000FC102A00D2B242430A44528923009BB20E
:105AC0009A42E2D12A00D2B200FB02F00844468199
:105AD0006D1C2800DFF8D8100978C0B28842E5D3E1
