:10000000004001205DB2030091B3030091B30300EF
:1000100091B3030091B3030091B3030091B30300C4
:1000200091B3030091B3030091B3030091B30300B4
:0C00300091B3030091B3030051B303002F
:100040000128000000000000000000000001003056
:1000500000000000000000000003FF186400000022
:10006000000000000000000078563412000000007C
:10007000BAAB00000000000100000000000000001A
:100080000500060008000900160002010202030232
:10009000000301030105020500060106040B140616
:1000A00015061706000701070207030700090409E0
:1000B00007000A000C000D000E000F0010001100D8
:1000C0001200130014001B000001010100020102D4
:1000D00002040004010403040404050406040005EA
:1000E00002060306040605060606070608060906B4
:1000F0000A060B060C060D060E060F061006110664
:100100001206130604070009000B010B020B030B78
:100110000097B92EE5725CCB5DCAE473B82F0196E7
:10012000BA2D03945FC8E671E7705EC90295BB2CD7
:10013000E3745ACD0691BF28BE2907905BCCE275C7
:1001400059CEE077BC2B05920493BD2AE17658CFB7
:1001500051C6E87FB4230D9A0C9BB522E97E50C7A7
:10016000EB7C52C50E99B720B6210F9853C4EA7D97
:10017000B2250B9C57C0EE79EF7856C10A9DB32487
:10018000089FB126ED7A54C355C2EC7BB027099E77
:10019000A2351B8C47D0FE69FF6846D11A8DA33467
:1001A000188FA136FD6A44D345D2FC6BA037198E57
:1001B00041D6F86FA4331D8A1C8BA532F96E40D747
:1001C000FB6C42D51E89A730A6311F8843D4FA6D37
:1001D000F3644ADD1681AF38AE3917804BDCF26527
:1001E00049DEF067AC3B15821483AD3AF16648DF17
:1001F0001087A93EF5624CDB4DDAF463A83F118607
:10020000AA3D13844FD8F661F7604ED91285AB3CF6
:10021000FF000000000000000000000000000000DF
:10022000FF000000000000000000000000000000CF
:10023000C0C1C2C3C4C5C6C7C8C9CACBCCCDCECF46
:100240002100000010002081ED1F0020210000008F
:1002500011004381B82A00202100000012002083F1
:10026000EE1F00202100000013002083EF1F00205C
:100270002100000014002083F01F00202100000056
:1002800015004381002C00202100000016001A8177
:10029000801A00202100000017001A81841A002013
:1002A0002100000020001843F11F00202100000061
:1002B0002100F143881A0020210000002200F143B0
:1002C000981A002021000000FDFF2141D41F0020CA
:1002D0000000000000000000FFFFFFFFFFFFFFFF26
:1002E000FFFF0000FFFFFFFFFFFFFFFFFFFF00001A
:1002F000FFFFFFFFFFFFFFFFFFFF0000D45A0020BA
:10030000DC5A0020185B0020285B00200000000061
:100310005C5B00207C5B0020845B0020A05B0020F5
:10032000B05B0020981C0000D01C0000E01C000006
:10033000EC1C0000FC1C0000DC5B0020EC5B0020DF
:10034000F05B0020F45B0020341E0020F85B0020EE
:10035000FC5B0020005C0020045C0020085C0020A6
:100360000C5C00201C5C0020545C0020685C0020B9
:100370000C1D0000801D0000F41D0000681E000020
:10038000DC1E0000501F0000681F0000741F0000EA
:1003900063630020945C0020381E0020A05C0020D5
:1003A000BC5C00206463002065630020E05C0020EA
:1003B000105D0020245D0020666300209C09000081
:1003C000240A00000000000000000000801F000060
:1003D000905D0020185E00201C5E00204C1E002056
:1003E000501E0020205E0020901F0000245E002090
:1003F0003C5E00200000000000000000BC1A00204D
:1004000000000000000000000000000000000000EC
:10041000905E0020C45E002008420020014A0310C4
:1004200049480310D54903101547031051850300AF
:100430005D49031081470310A1460310954803103E
:1004400045450310254A031021440310ED470310CE
:1004500099490310E1480310214903105553031033
:1004600089520310CD520310655003108D4E0310B6
:10047000E57A0300CF7B03004D7E030000000000FF
:1004800059510310ED500310ED7F0300CD4B0310C5
:100490002952031011530310A95503107555031069
:1004A00069530310DD55031035550310AD8D03005E
:1004B00021540310855C03100D5603104D5D03108D
:1004C000A9640310B55B03106D570310E5610310B9
:1004D000095E0310C5580310856003107161031095
:1004E000B16203109963031055630310FD6003109C
:1004F000B15E03106D840300D55A0310D559031063
:1005000009630310D963031019640310555F0310C6
:10051000C56403104D620310716403108D640310F1
:1005200055640310E16403102975031079720310F8
:10053000A16B0310F57203109D74031079740310FE
:100540002D74031061730310FD73031055740310B1
:1005500015750310D96C0310FD740310698B03002B
:10056000E17403103D750310D18C0300F96403108E
:10057000CD6803102D710310C1740310F56E0310C4
:10058000B9730310458F0300056E0310C56F031088
:10059000898E0300A1770310797D03103D7E03103F
:1005A00049750310157E0310357D031099760310ED
:1005B000997C0310257B031071780310B57D03101F
:1005C000ED7C0310857E03102D790310B97A03109A
:1005D000917B0310B1790310ED7B0310E97D0310CB
:1005E000617E0310357A0310D57E0310457C03101D
:1005F000A57E0310BD7E0310A3790300D9800310EC
:10060000E97E031049830310898403108D81031050
:100610007D820310E58403102B840310C58303102F
:10062000918703106188031045880310F18503103A
:10063000B18803107D880310C98803101D8703103B
:10064000A186031001850310E18803109988031027
:10065000F98703103F8A0300359C0310819D031026
:10066000E99A0310359B0310C19B0310419A0310B4
:10067000F18803101D8C0310618F0310F194031097
:10068000919E0310C19E03103D9E0310699E0310AE
:10069000259E0310619D03100D9E0310819B031086
:1006A000ED93031055990310C9970310D9980310BF
:1006B000BD950310959C0310C19D0310A59E0310CA
:1006C0007D9E0310C9910310B1890300699C03103A
:1006D000DD9D031095900310FD9B0310CD99031031
:1006E00051770300019D0310E19C0310219D03102D
:1006F000419D0310BD9C0310F59D0310A19D0310A7
:1007000055980310E1920310999A0310B99E0310B3
:10071000559E031061770300AF77030039A20310E1
:10072000D377030069A1031075A20310C59E0310BF
:10073000B9A10310F9A1031015A103109DA2031084
:1007400011910300199103001B91030059910300BB
:100750006D9103007391030031A90310ADA2031042
:1007600085820300B9A8031099A503107F7D0300BB
:1007700039A803106DA903108D7C03006DAC031024
:1007800099B1031009AF031059B1031001B103105F
:100790009DA9031019860300817C0300897C030056
:1007A0001D86030021860300857C03002586030047
:1007B000298603002D860300318603003586030059
:1007C000F1B9031075BA031081BB031049930300FC
:1007D000819303006194030001950300EB950300EE
:1007E00029960300AF960300DD9603003D970300B2
:1007F0007197030093970300B197030013980300C8
:100800005F98030067980300A198030023990300F1
:100810003B990300C5990300617C03001186030026
:10082000158603003986030051880300E9C60310CA
:100830000D86030085730300DF760300CD81010080
:100840007B82010011820100F1F00200797E02003A
:10085000D7760300F7770300FB770300697803007E
:10086000FF7803002D3300003B3300001D330000F0
:1008700025330000E5320000B9B30300C5B303001F
:10088000A12C0000D32C0000053000007F2F0000B9
:10089000B72F0000D5300000BD300000BD2D000096
:1008A000F32C000009310000332E0000793C0200D7
:1008B00001FE020013B00000B9310000D132000087
:1008C000B5940000F5940000379500000D950000E8
:1008D000252000206B6300206C6300206A630020E9
:1008E0006D6300206E630020262000208F850200AB
:1008F000F79B0200E5DE0200BF8A02002F8B020098
:1009000041E00200ADE00200998B0200E78A02009C
:100910009B8A02005B8B020071DE020069DE02002E
:10092000CF3102009B310200BFE6020041DE02002F
:10093000A7DE0200B5DE0200C3DE0200932F020034
:10094000532D02005130020051310200D1920300B8
:10095000B3DF020069E6020075E602000000000055
:1009600039E3020067DE020079E202000BE30200D5
:1009700000000000038602008D980200539F0200D1
:10098000812F020000000000000000000DA4020002
:10099000DDDC02001930020081E6020036000100B1
:1009A0000600000000000000000F00000000000032
:1009B000000000000000000000000300FFFF000036
:1009C0000403FFFF0000FFFF0F00E8030005401FC6
:1009D0000310000100000000FF3F0F000800050B9E
:1009E00000000000000000000300010F00000000F4
:1009F00000000000000000000000000000000000F7
:100A000000000000000000000000000000000000E6
:100A1000000000000000000000000000AD00000227
:100A20000000000000013636010100010201000152
:100A30000301000104010606080400000C01003453
:100A40000D01000F10040101140100FF1608000041
:100A500020020000220100FF23010001240100FE0A
:100A600025010008260200002801000129010001DB
:100A70002A0200002C01000F2E02000030010001AC
:100A800031010008320200FF34010007350102FF86
:100A9000360100003701000138010001390100FF73
:100AA0003A01000F3C0200FF3E01010F3F0100012F
:100AB0004001041F41010001420100FF4301008089
:100AC000440800004E0100084F01000F50010001D2
:100AD000510100FF520100005301000054010001C8
:100AE000580400005C04000060040000640400007E
:100AF000680400006C04000070040000740400002E
:100B0000780400007C040000800100FF81010001E6
:100B10008201000183010202840100013BCD020039
:100B2000EDCF020000000000000000000000000007
:100B3000BDD50200DBD5020021D50200F5D50200AB
:100B400025D602002BD60200FDD7020000000000CF
:100B5000F3D702000DD902003FD1020031D60200C6
:100B600051D60200E1D6020089D90200C7D10200A5
:100B70008DDB020069DB02000000000009DC0200DE
:100B8000ADD10200B1DA0200C92902000529020034
:100B90001F2A0200D9280200EB2802006F2B020056
:100BA000732B0200AD350200093502001B3602002E
:100BB000D9340200EB3402007336020077360200AB
:100BC000C9FD0100CDFD01002C1C0020DC1B002014
:100BD000F00D0000100E0000280E00004000000084
:100BE000400E0000600E0000000000005B417373C7
:100BF00065727420526561736F6E5D2030782530A8
:100C000032580000FFFFFFFFFFFFFFFFFFFFFF96CF
:100C10000A000000020000000400000008000000BC
:100C200010000000200000004000000080000000D4
:100C300000010000000200000004000000080000A5
:100C4000001000000020000000400000E803000049
:100C500088130000D0D1D2D3D4D5D6D7D8D9DADBF7
:100C6000DCDDDEDF0000000000000000000000000E
:100C7000000000005A6967426565416C6C69616EED
:100C80006365303938420020B3B40300504200207D
:100C9000B4B40300000002400929FF0074420020A0
:100CA000940C0000601B00209442002010430020A0
:100CB000FFFFFFFF002005000040000000000000D3
:100CC00000602500001000008C4300204000000060
:100CD000000000000000000000093D0014000000BA
:100CE000640000005420000022630020B40C0000C7
:100CF0007C200000CC430020BC0C00000000000061
:100D0000A1B20000E1E500000101010000000000C7
:100D1000FF000100EDFC02000700000000000040A1
:100D200017FF0000000000000400FFFF08000000A3
:100D3000100000004018002030180020401A002049
:100D4000301A00200A000000090000000C0000001A
:100D50000B00000009080AFF0A000000A4200000A0
:100D6000D84300201C0D0000FF0000000000000020
:100D700080A90300D8440020680D00000010004046
:100D800015000000FF000000CC46002020000000FD
:100D9000EC46002020000000000000000C000000D5
:100DA0000D000000FF000000FF00000020180020E0
:100DB00010180020040000000200000005000000E0
:100DC000100000000F0000001100000012000000E1
:100DD000000200005C4500207C0D000006010701B8
:100DE0000C470020DC0D000068470020DE0D0000ED
:100DF00002080000000000000000000000010100E7
:100E0000080053283C1C00200000000000000000E7
:100E10000308000000000000000000000001650958
:100E20000000000000000000012C00000000000095
:100E3000000000000001001E000000000000000093
:100E4000022C000000000000000000000000000074
:100E50000000000000000000000000000000000092
:100E6000032C000000000000000000000000000053
:100E7000000000004572726F7220726169736564D0
:100E80003A200000417373657274206661696C6575
:100E9000643A200074692E73797362696F732E6BE4
:100EA0006E6C2E5461736B2E49646C655461736B68
:100EB0000000000069643A20307825782061303ADB
:100EC00020307825782061313A20307825780A0062
:100ED000286E756C6C29000030313233343536376A
:100EE000383961626364656600000000000000003C
:100EF000000000000000000000000000E803000007
:100F000000000000000000000000000000000000E1
:100F1000A01C0020000000000000000001000000F4
:100F200000000000E00000000100000020000000C0
:100F3000360000000000000000000000000000007B
:100F4000C5BE000091B3030000000000696E746E1E
:100F5000756D3A202564206973206F7574206F6663
:100F60002072616E67652028633A2F74692F736958
:100F70006D706C656C696E6B5F6363313378785F3D
:100F80006363323678785F73646B5F365F34315FEA
:100F900030305F31372F6B65726E656C2F746972FC
:100FA000746F73372F7061636B616765732F74693A
:100FB0002F73797362696F732F66616D696C792F16
:100FC00061726D2F6D332F4877692E633A33383550
:100FD0002900000048776920616C7265616479209E
:100FE000646566696E65643A20696E7472232025B3
:100FF000642028633A2F74692F73696D706C656C77
:10100000696E6B5F6363313378785F636332367820
:10101000785F73646B5F365F34315F30305F3137D8
:101020002F6B65726E656C2F746972746F73372FD6
:101030007061636B616765732F74692F7379736275
:10104000696F732F66616D696C792F61726D2F6D99
:10105000332F4877692E633A333933290000000073
:10106000546F6F206D616E7920696E746572727550
:1010700070747320646566696E65642028633A2F16
:1010800074692F73696D706C656C696E6B5F6363F7
:10109000313378785F6363323678785F73646B5F7F
:1010A000365F34315F30305F31372F6B65726E657C
:1010B0006C2F746972746F73372F7061636B616723
:1010C00065732F74692F73797362696F732F66610B
:1010D0006D696C792F61726D2F6D332F4877692E92
:1010E000633A35343529000068617264776172654E
:1010F00020657863657074696F6E206964203D2097
:1011000025642C207063203D2030782530387820ED
:1011100028633A2F74692F73696D706C656C696E02
:101120006B5F6363313378785F6363323678785FFF
:1011300073646B5F365F34315F30305F31372F6BF4
:1011400065726E656C2F746972746F73372F70617E
:10115000636B616765732F74692F73797362696F4D
:10116000732F66616D696C792F61726D2F6D332FEE
:101170004877692E633A3131303029006E6F20494B
:1011800053522C206964203D2025642C207063205C
:101190003D203078253038782028633A2F74692F25
:1011A00073696D706C656C696E6B5F636331337806
:1011B000785F6363323678785F73646B5F365F3471
:1011C000315F30305F31372F6B65726E656C2F7415
:1011D0006972746F73372F7061636B616765732F0A
:1011E00074692F73797362696F732F66616D696CAF
:1011F000792F61726D2F6D332F4877692E633A31E5
:101200003130332900000000080000000000000019
:1012100000000000000000000000000000000000CE
:10122000040000000A0000000000000000000000B0
:1012300000000000000000000000000000000000AE
:101240000000000000000000050000000000000099
:101250000600000000000000000000000000000088
:10126000010000000000000000020000000000007B
:101270000000000001000000000000005BDC000036
:101280009BDC0000CBDC0000E9DC00000600000075
:1012900000020000696E76616C6964206D6F647590
:1012A0006C652073746174652028633A2F74692F0C
:1012B00073696D706C656C696E6B5F6363313378F5
:1012C000785F6363323678785F73646B5F365F3460
:1012D000315F30305F31372F6B65726E656C2F7404
:1012E0006972746F73372F7061636B616765732FF9
:1012F00074692F73797362696F732F6B6E6C2F54DF
:1013000061736B2E633A333834290000696E76615D
:101310006C6964207461736B206F626A656374200A
:10132000307825782028633A2F74692F73696D709F
:101330006C656C696E6B5F6363313378785F636390
:10134000323678785F73646B5F365F34315F30308C
:101350005F31372F6B65726E656C2F746972746FB5
:1013600073372F7061636B616765732F74692F73B7
:10137000797362696F732F6B6E6C2F5461736B2E70
:10138000633A343538290000696E76616C696420EF
:101390007461736B206F626A65637420307825789E
:1013A0002028633A2F74692F73696D706C656C69BE
:1013B0006E6B5F6363313378785F6363323678785E
:1013C0005F73646B5F365F34315F30305F31372F6E
:1013D0006B65726E656C2F746972746F73372F70E2
:1013E00061636B616765732F74692F7379736269C9
:1013F0006F732F6B6E6C2F5461736B2E633A3436A0
:10140000322900007461736B203078257820737462
:1014100061636B206F766572666C6F772028633A24
:101420002F74692F73696D706C656C696E6B5F6387
:1014300063313378785F6363323678785F73646BD7
:101440005F365F34315F30305F31372F6B65726EDE
:10145000656C2F746972746F73372F7061636B6181
:101460006765732F74692F73797362696F732F6B5C
:101470006E6C2F5461736B2E633A3437362900003B
:101480007461736B203078257820737461636B20EE
:101490006F766572666C6F772028633A2F74692FB8
:1014A00073696D706C656C696E6B5F636331337803
:1014B000785F6363323678785F73646B5F365F346E
:1014C000315F30305F31372F6B65726E656C2F7412
:1014D0006972746F73372F7061636B616765732F07
:1014E00074692F73797362696F732F6B6E6C2F54ED
:1014F00061736B2E633A3438312900007461736B69
:10150000203078257820737461636B206572726F68
:10151000722C205350203D20307825782028633AC3
:101520002F74692F73696D706C656C696E6B5F6386
:1015300063313378785F6363323678785F73646BD6
:101540005F365F34315F30305F31372F6B65726EDD
:10155000656C2F746972746F73372F7061636B6180
:101560006765732F74692F73797362696F732F6B5B
:101570006E6C2F5461736B2E633A34383829000037
:101580007461736B203078257820737461636B20ED
:101590006572726F722C205350203D203078257870
:1015A0002028633A2F74692F73696D706C656C69BC
:1015B0006E6B5F6363313378785F6363323678785C
:1015C0005F73646B5F365F34315F30305F31372F6C
:1015D0006B65726E656C2F746972746F73372F70E0
:1015E00061636B616765732F74692F7379736269C7
:1015F0006F732F6B6E6C2F5461736B2E633A34399B
:101600003429000064656C657465206E6F74206118
:101610006C6C6F776564207461736B20307825780B
:101620002028633A2F74692F73696D706C656C693B
:101630006E6B5F6363313378785F636332367878DB
:101640005F73646B5F365F34315F30305F31372FEB
:101650006B65726E656C2F746972746F73372F705F
:1016600061636B616765732F74692F737973626946
:101670006F732F6B6E6C2F5461736B2E633A393618
:1016800036290000696E76616C6964207461736B41
:10169000206F626A65637420307825782028633A69
:1016A0002F74692F73696D706C656C696E6B5F6305
:1016B00063313378785F6363323678785F73646B55
:1016C0005F365F34315F30305F31372F6B65726E5C
:1016D000656C2F746972746F73372F7061636B61FF
:1016E0006765732F74692F73797362696F732F6BDA
:1016F0006E6C2F5461736B2E633A31333134290091
:10170000696E76616C6964207461736B206F626AC4
:1017100065637420307825782028633A2F74692F08
:1017200073696D706C656C696E6B5F636331337880
:10173000785F6363323678785F73646B5F365F34EB
:10174000315F30305F31372F6B65726E656C2F748F
:101750006972746F73372F7061636B616765732F84
:1017600074692F73797362696F732F6B6E6C2F546A
:1017700061736B2E633A3133363829006F757420EC
:101780006F66206D656D6F72793A20686561703D96
:10179000307825782C2073697A653D25752028637B
:1017A0003A2F74692F73696D706C656C696E6B5F2D
:1017B0006363313378785F6363323678785F73645C
:1017C0006B5F365F34315F30305F31372F6B65725E
:1017D0006E656C2F746972746F73372F7061636BF1
:1017E000616765732F74692F73797362696F732FE3
:1017F00072756E74696D652F4D656D6F72792E63AC
:101800003A373829000000000100000055DF0000D1
:1018100059DF0000FB300100193601004D31010095
:10182000B91F02004532010047370100453201006F
:10183000C139010027330100B91F02004532010000
:101840004737010000000000000000000000000019
:101850000000000000000000000000000000000088
:1018600000000000AD330100B91F02008F340100F9
:10187000B91F0200A93401006B3C0100CB34010008
:10188000B91F02000000000000000000000000007E
:101890000000000000000000000000003F350100D3
:1018A000C53E01005B350100B91F02003F35010054
:1018B000C53E01005B350100B91F0200A9340100DB
:1018C0006B3C0100A1350100B91F0200FFFFFFFFC3
:1018D000FFFFFFFFFFFF0000105465786173496E42
:1018E000737472756D656E74730000000000000003
:1018F00000002001CCB40300000000000300200120
:10190000CBB403000000000004004201D81800001E
:101910000000000007003001CDB40300000000000B
:10192000110030032A63002000000000FDFF2101A8
:1019300046F601000300000000002103DE620020E3
:1019400003000000FDFF21417E1B02000600000095
:10195000FDFF21813A26020000000300030006007B
:1019600004000000FFFFFFFFFFFFFFFFFFFFFFFF7F
:10197000FFFFFFFF13000000C1F500001F00000083
:1019800071F700001F80000081F8000000000000D7
:10199000DF55010001000000DF55010002000000DA
:1019A0004FEB0000028000004DEB00000300000040
:1019B00099EB000004000000E3EB0000048000004D
:1019C00069EC0000050000006BEC00000600000060
:1019D000F9EC00003100000053F10000330000007A
:1019E00009F4000034000000D1F4000036000000CB
:1019F00061F50000FFFF000000000000FFFFFFFF97
:101A0000FFFFFFFF8F00010018200020870001006A
:101A100016200020350028008459002028000100ED
:101A2000F91F002029000100FA1F00208400040093
:101A3000544C0020860001005D1A00202A0001009D
:101A4000FB1F00202B000100FC1F00202C000100C8
:101A5000002000202D0008002C1E00202E00010078
:101A6000012000202F000100022000203000010092
:101A700003200020320001004263002033000100F7
:101A800043630020340001000420002036000100E0
:101A900044630020380001000520002039000100C7
:101AA000FF1F002083000200E61F002063000100EA
:101AB0004663002065000100FD1F00206D0001004D
:101AC0004763002071000800584C002066000100A8
:101AD00015200020430001001020002044000200D7
:101AE000DC1F0020450001001120002046000200FC
:101AF000DE1F002047000800604C00204800010065
:101B0000122000204B0001001320002004000100DF
:101B100017200020A10001001E2000203700010036
:101B20001C20002088000100192000203C0001003A
:101B3000062000203D00010007200020490002008F
:101B4000E01F002067000100486300204D000200F4
:101B5000E21F00204E000100142000204F00020070
:101B6000E41F00203E0001000D2000205100010074
:101B700009200020520001000A200020530001002B
:101B80000C200020540001004563002000000000EC
:101B900000000000001610000018151002000224BA
:101BA000145800001000000052616E646F6D5F7386
:101BB0006565644175746F6D617469632829206679
:101BC00061696C656400000041455343434D206FDB
:101BD00070656E206661696C65640000414553451F
:101BE0004342206F70656E206661696C6564000019
:101BF00054524E47206F70656E206661696C656453
:101C000000000000FFFFFFFFFFFFFFFF95820100C4
:101C10006DA60100EF6B020049FE0100F71D0300F5
:101C20009DCD0100BD1E0300A11401009D240300F1
:101C3000FFFFFFFFFFFFFFFF0100000041B80100B1
:101C40000600000069C1010008000000D5C00100C5
:101C50000B00000011C2010010000000E98B000021
:101C60000200000055BB01000500000079BE010024
:101C70000700000031BC01000C00000097AC01001F
:101C80000D00000029B0010064000000D7760100BB
:101C9000FF00000000000000000000000200000043
:101CA000020000000A000000020000000200010023
:101CB0000000000000000000000000000000000024
:101CC0000000000000000000000000000E00000006
:101CD00000A6AAACA4A9A9A399B19ABCB6A8000071
:101CE000020402010101010902000000313117194B
:101CF0001A21241B1D1F31313331000031311819D5
:101D00001A22311C1E2031313431000003007100D1
:101D10003001600011007000310220035004800087
:101D200007001000610000001400630073007200DF
:101D300062004300000013000600000000000400E1
:101D40001200000000000000000004000400370042
:101D500037003C0244000000000000000000650065
:101D60000000350081000000050000008300000035
:101D7000660000000000080009000A000B000000D7
:101D80000101710101010101110101013101010193
:101D9000010180010001100161013B001400630199
:101DA00073017201620143010001130106013D014B
:101DB00035000401120100010001000100010401CD
:101DC0000401330133013C014401320136000001BA
:101DD000000165010001350081010001050182015A
:101DE00083010001660100010001080109010A01E7
:101DF0000B01000003027102300160021102700247
:101E000001020202020280020002100261023A0094
:101E10004100630273027202620243020002130273
:101E20003800000200020402120200020002000256
:101E3000000204020402370037003C0244020002A0
:101E40003900000200026502000235028102000230
:101E500005028202830200026602000200020802FA
:101E600009020A020B0200000103710301030103CE
:101E70000103010301032203020301030003100312
:101E800000030003000300030003000300034203F8
:101E900000032403060300030003040312032503C5
:101EA00023032503230304030403000300030003A7
:101EB00044030003000323030003650321003503EB
:101EC000810300030503000300030003000325034F
:101ED0002303080309030A030B030000030471042E
:101EE00002046004110470040204020401040204E8
:101EF00000041004610400041404630473047204F5
:101F000062044304000413040604000400040404EF
:101F100012040004000400040004510464000004DE
:101F200000040004440400040004000400046504E8
:101F300000043504810464000504000483040004E3
:101F4000660400040004080409040A040B040000E9
:101F500000000500BD00B700B100BC001C0030004F
:101F60003800080038010200000120181A18182C47
:101F700034041E000C0E020B040B0A070800110F9C
:101F800088B2240088130000100000000000000147
:101F9000C003000080070000000F0000001E0000CA
:101FA000003C00000078000000F0000000E00100AC
:101FB00000C003000080070000000F0000001E00AA
:101FC00000003C00000078000000F0000000F0007D
:101FD0000000000000000000000000000000000001
:101FE00000000000000000000000000000000000F1
:101FF000000000000000000000BE040A00BE02084D
:102000008E0000008E0001008E0002008E00030092
:102010008F0000018F0000028F0000038E0001047A
:102020008E0000058E0008048E0000048900000662
:10203000500000007F0001003F0004003F0002004C
:102040003F0001007F0002008E0002048E000102AA
:102050008E0001011D9A0300259A03002B9A0300AC
:10206000579A03006F9A0300B19A0300C39A0300C2
:102070002D9B03006B9B0300739B0300B19D03002A
:102080002F9E0300A59E0300D19E0300E39E030044
:10209000199F03002D9F03004BA003008FA0030096
:1020A00099A00300F9A503006FA603001DA9030072
:1020B00027A90300F5AA0300DBAD0300614000215E
:1020C0008D40002199400021FF4000216F410021F7
:1020D000074C657900F009F861796940490703D533
:1020E0000121044A8903116070BD70B50249084797
:1020F00080030021081104402D59000000F00AF867
:1021000000480047577F000000F00AF800480047E9
:102110001B880000806B0C490007000F4871704756
:10212000094A0A4918235079CB56497EC018814282
:1021300001DD084602E00F2800DD0F20D1890909E2
:1021400009010143D1817047E0020021880000218C
:1021500010B53348314C8047012807D02034217D09
:10216000002903D101212F4A0905916010BD0728DC
:1021700001D02D4A10472D4A4A60C872704701228B
:102180002C4B02212A481847274810B5F8308047C1
:102190002948406A00280DD128490A2008560028FD
:1021A00009DA401C07D008462038406A2449884292
:1021B00000D1804710BDFFF7E2FF10BD0021224B88
:1021C000204A08461847012020494002086020485C
:1021D000FB2201781140017013480C30004710B504
:1021E0001C49884715492039012807D0020404D525
:1021F0000020088518484862012010BD4A6A0A4B31
:102200000C339A4201D1154A05E00B494A6A144B36
:102210009A42F2D1134A4A6210BD000060010021C7
:1022200075A6020000110440A9910200E1400021BE
:10223000060800009F06000008010021540100214B
:102240006392020019410021B5B4020080E100E070
:1022500080030021F79602000F4100215741002121
:10226000699502004D4100210000000000000000BF
:10227000000000000000000000000000010000005D
:1022800000C2010003000000000000000102000382
:1022900002000103F8B505000F001600142001F03C
:1022A0003DF80400002C1CD0DFF8BC160868206044
:1022B0000C606560A76032202073012060730120EC
:1022C000A0732661287800280BD02878F12808DA36
:1022D0000868DFF898160860606801F0C8FA61685D
:1022E00048702000F2BD10B50400207800F0CBFA51
:1022F000002801D002200AE0002200212000FFF780
:10230000C9FF002801D1102000E00020C0B210BD9C
:1023100038B5DFF854361968002923D019680A0047
:102320004C6824780500EDB2AC4206D1086818600C
:10233000080000F0F7FF002015E0116801E00A0036
:10234000096800290CD04B681B780400E4B2A34252
:10235000F5D108681060080000F0E4FF002002E0FA
:10236000022000E0012032BD2DE9F04105000E0001
:10237000170098462800C0B200F093FA0400002C21
:1023800010D0062000F08CFC010000290AD0FD20AE
:10239000087081F801808D708F80CE706068007841
:1023A00000F0A7FCBDE8F081F8B505000E001700AD
:1023B0002800C0B200F075FA0400002C12D00820EA
:1023C00000F06EFC010000290CD00798069AFE234D
:1023D0000B7048708D70CA700E71CF806068007885
:1023E00000F087FCF1BD2DE9F04F85B006000F002D
:1023F000904699460024DFF8700505685FF0FE0AF4
:10240000307810F00C000C2816D1FE21B08801F0B5
:102410008BFC82465046C0B2FE2800F08B805046AE
:10242000C0B200F03EFA0400002C00F08380207857
:1024300000F029FA050015E0B078FF2803D1002D3F
:1024400010D06C680EE0B07800F02BFA0400002881
:1024500008D0207800F017FA050003E0207800F09B
:1024600012FA0500002C65D04FF6FE7BA868002804
:102470000AD021780220AA68904700280AD0B0F834
:1024800000B000F04FFF05E0A068002802D0A0686F
:10249000B0F802B030891FFA8BFB58450DD0207878
:1024A000002802D13089002807D0207800281ED0CB
:1024B00030894FF6FF71884219D196F802B0207822
:1024C000B0709DF844000490109803909DF83C0073
:1024D00002909DF838000190CDF8009043469BB2E1
:1024E0003A002100300000F028F886F802B0307879
:1024F00010F00C000C2811D15146C9B2B08801F07F
:1025000013FC82465046C0B2FE2813D05046C0B2DB
:1025100000F0C7F90400002CA0D10BE0B078FF2830
:1025200006D12D68002D01D06C689BE7002499E747
:10253000002497E705B0BDE8F08F2DE9F74F82B092
:102540008146984699F814003030D9F8101001915E
:10255000C0B280B200F0A4FB0400002C4FD0129D4A
:10256000DDF844A0109E0F9FDDF838B0ADF8008074
:102570000499DDF80C801A202070B9F804006080FE
:10258000B9F80600A080A01D00F0F6F999F8030044
:10259000E07398F80000207599F80C0060759BF8BE
:1025A0000000A0759BF80100E0759BF80200207602
:1025B0006676C4F81CA084F82070B9F81A00A085CB
:1025C000B9F80A006082BDF80000208299F8140072
:1025D000A08484F82E50A08C002808D014F130007C
:1025E000A062A28C0199A06A00F08EFE01E000209A
:1025F000A0622100D8F80400007800F07AFB05B052
:10260000BDE8F08F2DE9F0418AB00C0016001F00E4
:10261000002C01D1022007E1129D804698F80800A5
:102620008DF80200280716D598F80800022801D076
:102630000220F9E002F0ADF8B8F8001080B2814253
:1026400009D003220121B8F8000006F043FC00285D
:1026500001D0CD20E8E098F80800022803D098F8CF
:1026600008000F281BD1B8F8000002F073FE002804
:102670000FD00F2088F8080098F808008DF80C009B
:1026800098F80800032818D1414601A806F053FF26
:1026900017E098F808000F28EED10220C4E098F85F
:1026A00008000328E8D098F808000128E4D098F83A
:1026B00008000028E0D00220B6E0B8F80000ADF82D
:1026C0000400A80704D54FF6FF70ADF814001AE017
:1026D0000020ADF81400200000F00CF902000028E2
:1026E0000AD021780220904700280CD00188ADF84C
:1026F000141000F017FE06E0A068002803D0A068C0
:102700004088ADF814000020ADF81C00E8060DD597
:102710009DF80C000F2809D09DF80C00012805D069
:10272000BDF81C0050F00400ADF81C00280605D5CB
:10273000BDF81C0050F01000ADF81C00680609D56B
:10274000BDF81C0050F00100ADF81C0001208DF810
:10275000010002E000208DF80100680705D5BDF8F2
:102760001C0050F04000ADF81C0000208DF8000067
:10277000A80603D504208DF81F0003E07C480078EC
:102780008DF81F001398119D10992A788DF81E203E
:1027900022788DF80E2098F809208DF80F20ADF8DA
:1027A0001260ADF8167006918DF82000207800F0C8
:1027B0006AF80100002905D00869002802D001A8A4
:1027C00009698847684600F0A2F880B2BFB2B842F3
:1027D0000AD268490868002804D001A80968884717
:1027E000070005E0022703E001A806F0A9FE0700A4
:1027F0009DF80C0002280ED101F0CBFFBDF80410AB
:1028000080B2814207D13B00DBB2320092B229781C
:102810002078FFF7A9FD3800C0B2002802D128783F
:10282000401C28703800C0B20AB0BDE8F081F8B58D
:1028300084B004000D0016001F000E990F9AC9B253
:10284000208805F033FC0100C9B2002912D19DF89F
:10285000340003909DF8300002900B9801900A9884
:1028600000903B009BB2320092B229002000FFF79B
:10287000C9FE05E0C0B2052801D1022000E0102009
:10288000C0B205B0F0BD01003748006800E0006844
:10289000002805D0426812780B00DBB29A42F6D1CC
:1028A000704780B5C0B2FFF7EEFF002801D0406846
:1028B00000E0002002BD38B504000D002800C0B2C1
:1028C000FFF7E1FF02000021002A0ED090680028E7
:1028D00007D02900C9B201209268904720600121E9
:1028E00005E050688068206001E00020206008005A
:1028F000C0B232BD1C49096800E00968002904D053
:102900004A688242F9D1886800E00020704710B51B
:102910000178012901D1082400E00024401C06F0C0
:102920003BFF041B2000C0B210BD0F48016800200F
:1029300001E0401C09680029FBD1C0B2704710B407
:10294000094A13680CE05A6814780A00D2B2002AC7
:1029500003D02200D2B2002A01D00470401C1B68B0
:10296000002BF0D110BC7047EC2800205829002023
:10297000EA1F0020005A002010B50400087A2072D7
:10298000087A032803D1200006F0D5FD01E008886D
:1029900020800020608110BD10B50C00C0B2FFF790
:1029A00072FF002804D1322020700120607005E001
:1029B000022210F10C01200000F0A6FC10BD10B5A1
:1029C0000C00C0B2FFF75FFF002801D1022005E034
:1029D000022221000C3000F097FC002010BD2100E5
:1029E000F8B5DFF86448207801283FD0DFF85C288C
:1029F000DFF85C08800880001060DFF85858DFF8C6
:102A000058181068091A2960DFF85068106830609B
:102A1000116802E000200860091D13682868C318C7
:102A20009942F7D330682968890800EB8100001FBC
:102A3000002101603068E82101603068E8302968D1
:102A400089088900EC390160DFF8147838600020CB
:102A500000F00DF8DFF80C1808603068386028685E
:102A6000001FDFF80418086001202070F1BD2DE977
:102A7000F0410700002500263F1D17F00301080064
:102A8000C0B2002804D03F1D38000F00FFB2C71BA2
:102A9000DFF8D88700F04AFCC8F80000112F03D2F5
:102AA000DFF8BC07046802E0DFF8B80704682168B3
:102AB00005E0012625000C442168002916D00029D4
:102AC00003D591F000410026F5E73000C0B20028A0
:102AD00009D02A68206882182A602868B842EAD398
:102AE0002C00216803E0B942E3D300E00024002C6D
:102AF00019D0C91B04290BD304EB0700016057F060
:102B000000402060DFF860070168CF1B076009E024
:102B1000DFF854170A682068121A0A60206850F01B
:102B200000402060241DD8F8000000F006FC2000C2
:102B3000BDE8F08138B50400002C24D0DFF82C5714
:102B400000F0F4FB2860211F0868002808D4DFF893
:102B500020070168491C0160286800F0EEFB12E0C4
:102B6000086820F000400860DFF8FC261368086859
:102B7000C3181360DFF8E8060268914200D20160D2
:102B8000286800F0DAFB31BD2DE9F0410024002572
:102B900000260027DFF8D48600F0C8FBC8F8000044
:102BA000DFF8C00602680CE00E000125140007E003
:102BB000002913D591F000410025B74200D237001B
:102BC0000A4411680029F3D1B74200D23700D8F87F
:102BD000000000F0B2FB3800BDE8F0812800C0B270
:102BE0000028E1D02068081820608E19E8E710B5A9
:102BF0000400DFF8600600682060DFF86C060068FB
:102C00006060FFF7C1FFA060A068092803D3A06837
:102C10000838A06001E00020A06010BD80B5FFF77B
:102C2000DFFE4BF6BE2002BD80B50800FFF71FFF98
:102C300002BD80B50800FFF77DFF01BD02B5684603
:102C4000FFF7D5FF01BDF0B4DFF828361C780F2C54
:102C50001EDA1824DFF820561E781F786743EE55D9
:102C60001E7866432E447060187860432844C16023
:102C70001878604328440021816018786043284414
:102C800000210174187804FB00F405EB0400426194
:102C90001878401C18701878401EC0B2F0BC7047FD
:102CA00038B504000025200080B2002801D10020A2
:102CB0000EE0200080B20C3000F030FB002806D07F
:102CC000002101600481FF21817210F10C052800B0
:102CD00032BD80B5002801D1052009E010F8021CA2
:102CE000FF2901D0042003E00C3800F01BFB00207A
:102CF00002BD2DE9F84306000C00002C01D105208F
:102D00002CE0002500E06D1C2800DFF8681509782C
:102D1000C0B2884221D21827DFF85C852800C0B2F3
:102D2000784318F800003100C9B28842EBD100F0B6
:102D3000FDFA81462100EDB27D4308EB0500083025
:102D400000F01DF94FF400413000C0B200F071F8FE
:102D5000484600F0F2FA002000E00320BDE8F283CC
:102D6000F8B505000E00002400F0E0FA002100E0B4
:102D7000491C0A00DFF8FC341B78D2B29A4219D2FF
:102D80001822DFF8F4340F00FFB25743DF5DAC4682
:102D90005FFA8CFC6745EBD1C9B2514319448C688A
:102DA00001E054F80C4C002C04D021783200D2B24F
:102DB0009142F6D100F0C1FA2000F2BD2DE9F041B8
:102DC0000600002400252AE04FF400412800C0B28C
:102DD00000F02FF822E01827DFF89C842800C0B20A
:102DE000784318F800003100C9B2884216D1280093
:102DF000C0B278434044083000F004F904002800D1
:102E0000C0B207FB00F708EB070080680028DBD1A1
:102E10004FF400412800C0B200F070F86D1C28008B
:102E2000DFF850140978C0B28842D4D32000BDE83E
:102E3000F0812DE9F04704000D005FF003095FF019
:102E4000000831E01826DFF830744046C0B2704305
:102E5000385C2100C9B2884224D100F067FA82466A
:102E60004046C0B27043384440694146C9B27143DC
:102E7000394449690968294301604046C0B270433A
:102E80003844C068002808D04046C0B206FB00F6AF
:102E900007EB0600C06808F0D1FA5FF00009504661
:102EA00000F04BFA18F101084046DFF8C813097822
:102EB000C0B28842C6D34846C0B2BDE8F08738B534
:102EC0000400002512E01820DFF8AC132A00D2B26B
:102ED00042430A445268A24207D12A00D2B200FB00
:102EE00002F00844C06808F0B0FA6D1C2800DFF852
:102EF00084130978C0B28842E5D331BD70B50600AD
:102F00000D00002400E0641C2000DFF8681309783D
:102F1000C0B2884232D23000C0B2FF280AD0DFF8F7
:102F200058132200D2B218204243885C3100C9B243
:102F300088420FD03000C0B2FF28E4D108F050FA28
:102F4000CD4A2300DBB218214B4302EB0301496851
:102F50008142D8D100F0EAF91821C74A2300DBB238
:102F60004B4313445B69E4B24C4302EB04014969EF
:102F7000096831EA05051D6000F0DFF970BD38B55C
:102F800005000C0000F0D2F9002C11D0002144F80B
:102F90000C1C2968002901D12C6009E02A6801E095
:102FA00052F80C2C52F80C1C0029F9D142F80C4CA8
:102FB00000F0C3F931BD2DE9F84304000D001600FF
:102FC00000275FF0000800F0B1F981462068002872
:102FD00008D0216802E051F80C1C7F1C51F80C0C41
:102FE0000028F8D1F6B2B74205D229002000FFF739
:102FF000C6FF5FF00108484600F09FF94046C0B2A6
:10300000BDE8F28338B50400002500F08FF921688F
:10301000002909D0256855F80C1C2160002145F8CD
:103020000C1CFF2105F8021C00F087F9280032BDB6
:10303000F8B506000F000024002500F077F9002104
:1030400000E0491C0A008B4B1B78D2B29A4231D265
:103050001822894B8C465FFA8CFC02FB0CFC13F89F
:103060000CC0B6465FFA8EFEF445EAD10C00E4B21D
:1030700054431C44A46802E0250054F80C4C002C76
:1030800018D02678BC465FFA8CFC6645F4D1002D3A
:1030900006D1C9B25143194454F80C2C8A6003E09C
:1030A00054F80C1C45F80C1C002144F80C1CFF21A2
:1030B00004F8021C00F041F92000F2BD38B504000C
:1030C0000D0000F033F9216845F80C1C256000F074
:1030D00034F931BD70B505000C00160000F026F97A
:1030E00029688C4203D154F80C1C296003E054F881
:1030F0000C1C46F80C1C002144F80C1CFF2104F8A1
:10310000021C00F01AF970BDF8B50200002400237B
:1031100014E0002411E000201F00FFB26F43374489
:103120003874E4B21800C0B205FB00F506EB0500E8
:10313000007C0443002CECD001245B1C18004D4D96
:103140002D78C0B2A8420FD218254B4E1800C0B23D
:103150006843305C1700FFB2B842E2D10800C0B249
:103160000028D8D00120D7E72000C0B200280DD118
:10317000424D2878012816D101200BF0B4F8022026
:103180000BF0B1F82878401E28700CE03B4D2878F1
:10319000002808D101200BF00CF902200BF009F9EE
:1031A0002878401C28702000C0B2F2BD80B5010014
:1031B00088684968884701BD2DE9FF4106000F0076
:1031C00090461C00002C01D102203AE02068002823
:1031D00020D10C2000F0A2F80500002D01D108201C
:1031E0002FE0684607F021FF0020019000208DF8B5
:1031F000000002956A463100214807F0D7FE28609A
:103200006F60C5F808802868002801D1082018E000
:1032100025600EE0256800F089F80400286807F0B2
:1032200000FF002802D0286807F00EFF200000F001
:1032300084F83100286807F0FFFE286807F000FFD7
:10324000002004B0BDE8F0811F6300202042002070
:103250009F63002028420020FF3B012024420020E1
:103260001042002014420020184200200C4200208E
:103270001C4200201E630020A0400020206300208C
:10328000AD31000070B50400002C06D02068002885
:1032900003D020680068002801D1022017E02668CA
:1032A00000F044F80500306807F0BBFE002802D0AB
:1032B000306807F0C9FE306807F099FE300000F072
:1032C00031F800202060280000F037F8002070BDA1
:1032D00080B5002805D00168002902D0006807F0F9
:1032E000B3FE01BD10B413005A1E002B09D0030019
:1032F000581C0C00611C1B782478A342F3D00020DA
:1033000000E0012010BC704703E00B780370491CFB
:10331000401C13005A1E002BF7D1704780B5FFF7F1
:10332000A6FB02BD80B5FFF705FC01BD80B507F027
:10333000C4FEADF80200009802BD01B568464088A1
:1033400007F0F5FE01BD80B5022100F002F880B261
:1033500002BD0A00D2B2012A01D1007829E00A0098
:10336000D2B2022A05D101784078000250FA81F0E9
:103370001FE00A00D2B2032A09D101784278120272
:1033800052FA81F1807811EB0041080011E0C9B2D6
:1033900004290CD101784278120252FA81F1827824
:1033A00011EB0241C07811EB0061080001E05FF011
:1033B000FE3070470170401C0A00120A0270401C67
:1033C0000A00120C0270401C090E0170401C70476C
:1033D00030B4002801D1002012E0002300E05B1C83
:1033E0001C001500E4B2EDB2AC4208D21C00E4B2FD
:1033F000045D0D00EDB2AC42F1D0002000E00120F0
:1034000030BC704780B50BF075FA80B202BD000089
:103410000021DFF82418C97A090701D5012029E025
:103420000100C9B2FF2904D1DFF81018087000208C
:1034300020E00100C9B200291BD00100C9B2F12966
:1034400017DADFF8FC17096800E00968002910D0D6
:103450004A6812780300DBB29A42F6D1496849788B
:10346000002904D0DFF8D4170870002002E0022001
:1034700000E002207047DFF8C40700787047DFF8EB
:10348000C417DFF8BC0700680860DFF8B0271078C1
:10349000FF2803D111E00868006808600868002868
:1034A00020D008684068007813789842F3D1086803
:1034B000406818E00868006808600868002811D0B3
:1034C0000868406800780028F4D0086840680078F0
:1034D000F128EFDA0868406840780028EAD00868E8
:1034E000406800E00020704730B587B0002100211F
:1034F00000910CF017FA0400002C43D0FFF7BFFF37
:10350000DFF844576188287800F080FB009000982D
:10351000002834D00098007B812830DB20780028F8
:103520002AD16088ADF8060004208DF80400211D22
:1035300002A80CF0A3FC01A80CF0D5FD002815D1C1
:103540000020DFF808170870DFF8044740212078D2
:103550000CF0CCFE280000F00BFA4FF480412078EC
:103560000CF0C4FE0C2000F0FBF90BE06A46618809
:10357000012000F021F805A8FF2000990873200021
:10358000FFF7D0FE07B030BD10B50020DFF8BC1645
:103590000870DFF8BC46402120780CF0A7FEDFF869
:1035A000B4060EF0A1F94FF4804120780CF09EFE95
:1035B0000B2000F0D5F910BD2DE9F74F8AB00400BB
:1035C0005FF0010B0FE02868006828602868002879
:1035D00009D02868406800780028F4D0286840683E
:1035E0000078F128EFDADFF85C562868002800F050
:1035F000E6800026286847684FF6FF78DFF838969F
:10360000B9F8080040450DD0DFF84C260121387884
:103610000EF0AFFBB9F80800ADF8100001208DF8EE
:1036200018000BE003208DF818002000C0B200281D
:1036300004D004A9BDF82C000CF052FC5FF0000A85
:103640000AE05846C0B2002804D101262000C0B2CA
:10365000002823D01AF1010A5046B968097BC0B28C
:1036600088421BD2DFF8E005012103912100C9B295
:1036700002910178019104A900918368C279B86828
:1036800000695146C9B230F81110387800F035F9A8
:1036900083465846C0B2B228D3D1FFE75846C0B2DD
:1036A000B22837D03000C0B2002803D02000C0B20A
:1036B00000282FD05FF0000A0AE05846C0B2002868
:1036C00004D101262000C0B2002823D01AF1010A3B
:1036D0005046B968C979C0B288421BD2DFF8680584
:1036E000002103912100C9B202910178019104A93E
:1036F00000910369027BB86880685146C9B230F80E
:103700001110387800F0F9F883465846C0B2B22854
:10371000D3D1FFE7F6B2012E2DD12000C0B2002890
:1037200004D0FF200C990968087303E080200C99ED
:1037300009680873B9F80800404520D0BDF82C008E
:10374000ADF81C0002208DF82400DFF8FC0400789E
:103750008DF82500002003900020029001200190A8
:10376000DFF8F8040090B9F80830002207A938788B
:1037700010F09BFC03E0FF200C9909680873584681
:10378000C0B2B22816D10020DFF8C0140870DFF8EC
:10379000C044402120780CF0A9FDDFF8AC0400F013
:1037A000E7F84FF4804120780CF0A0FD0C2000F0E9
:1037B000D7F804E0DFF884040078FF2802D00DB0C9
:1037C000BDE8F08F286800682860FFE670B586B015
:1037D0000400002000900025FFF751FEDFF864048C
:1037E000006840684078C00704D4DFF85C0400F04B
:1037F000BFF839E0A0694078A16989780902081802
:10380000ADF80C0002208DF81400A0690079BDF815
:103810000C10C0B200F0FAF900900098002825D0F2
:10382000DFF82464300000F0A3F83100A069001D27
:103830000CF057F901A9009800880CF051FB002802
:1038400001D0012501E00098066101A86A46BDF893
:103850000C102800C0B2FFF7AFFE0098007BFF28D5
:1038600002D1300000F084F806B070BDFCE72DE90D
:10387000F0410500002418273026DFF8E483434692
:103880003A00D2B2A8688168A868C0790BF03CF908
:10389000C0B2012801D154F0020443463A00D2B22A
:1038A000A8680169A868007B0BF02EF9C0B2012856
:1038B00001D154F00104DFF8AC733B003200D2B206
:1038C000A8688168A868C0790BF01EF9C0B2012809
:1038D00001D154F001043B003200D2B2A868016962
:1038E000A868007B0BF010F9C0B2012801D154F098
:1038F00002042000C0B2BDE8F08173B504001500D9
:103900001E000999C9B2BDF8040000F042F9002870
:1039100001D0B12023E001AB012231002800C0B268
:103920000BF0F2F8C0B2002801D1B12017E00898DE
:10393000C0B2002812D0DFF83053286800280DD01C
:10394000079A069901A800900123D2B22000C0B2C4
:103950002C68A047002801D1B22000E0002076BDED
:1039600080B5B5498872012106200CF0CFFF01BD5A
:1039700010B50400A068002804D0A068FFF7D2FCAE
:103980000020A0602069002804D02069FFF7CAFC4D
:103990000020206110BDB5490860704770B5050072
:1039A0000C00002D17D0A94E3078002802D100203D
:1039B000287010E04021A64800780CF0CAFC32784C
:1039C000521E0F214A4300F2E7304FF47A71B0FBE8
:1039D000F1F082182A70002C02D09C4800782070E8
:1039E00070BDA3490860704718B58BB00400012072
:1039F0004FF6FF70ADF8200002208DF82800FF2060
:103A00008DF8290010F0FCFA0021079100210691A1
:103A100000210591C0B20490002003900120029083
:103A200000200190012000900123032208A920001A
:103A3000C0B20EF0F4F904002000C0B2002807D193
:103A400041F288324FF48041814800780CF040FC0C
:103A50002000C0B20CB010BD38B504007C4D4FF44E
:103A6000804128780CF042FC21007A480DF002FFDA
:103A700000280FD02168097A017221680988018025
:103A80002168497A41722168498941810021017385
:103A9000002101614FF480412878FFF7CAF931BD58
:103AA0003EB5684600210022002380E80E00714CDC
:103AB0002068002812D1674D286800F09BF820602C
:103AC000206800282AD12868002803D10B20FFF79E
:103AD00047FF02E00020FFF743FF59E02068007B2A
:103AE000FF2809D02068007B000617D42068007BDF
:103AF00030F08000042811DB5F49086800280BD1F2
:103B00005448006800F076F820602068002805D14D
:103B10000020FFF725FF3BE00868206041F2883273
:103B20004FF480414A4800780CF0D2FB53480078AB
:103B3000082821D020680088ADF800002068007AAD
:103B40008DF808002068007B401C216808732068FD
:103B5000007B000607D50023002200212068008892
:103B600011F0FDFB0EE000232068427A20680188F6
:103B7000684611F08BFC05E02068007B50F04000A7
:103B8000216808732068406900F034F83A490860F9
:103B900037BD10B4C9B2002914D01822002100E0AA
:103BA000491C0B001400DBB2E4B2A3421FD22C4B21
:103BB0000C00E4B233F814300400A4B2A342EFD1F5
:103BC000002015E03022002100E0491C0B00140009
:103BD000DBB2E4B2A3420AD2224B0C00E4B233F8C7
:103BE00014300400A4B2A342EFD1002000E0012071
:103BF00010BC704700E04069002805D0017B31F01F
:103C000080010429F7DA00E00020704710B40200B8
:103C10001048006800E0406900280AD003880C00C2
:103C2000A4B2A342F7D1437A1400E4B2A342F2D182
:103C300000E0002010BC7047501A0020EC1F00204C
:103C4000582900205C2900208829002008630020D2
:103C500009630020602900206C1A0020641A0020EB
:103C600080000000B00000009C2900208029002076
:103C70008429002064290020682900206C29002064
:103C8000F8B506000F00140039883000C0B200F00B
:103C900031F8002801D0B8202BE000F0D1F8AF496E
:103CA0000978C0B2884201D3B22022E01820FFF781
:103CB00035FB0500002D01D110201AE000202860FE
:103CC0002E7112223900A81DFFF71EFBA4490868B7
:103CD000002801D10D6006E0096800E00968086865
:103CE0000028FBD10D60E4B2002C01D000F0EFF809
:103CF0000020F2BD10B49A4A126800E01268002A4F
:103D00000FD013790400E4B2A34203D00300DBB266
:103D1000FF2BF3D1D3880C00A4B2A342EED1901DA7
:103D200000E0002010BC704730B40A00D2B2FE2A76
:103D300001D1012400E00024894A136806E00A004A
:103D40001D79D2B2AA4200D101241B68002B0AD0EF
:103D5000DA880500ADB2AA42F7D12200D2B2002A19
:103D6000EDD0187900E0FE2030BC704730B403007D
:103D700000207B4A12680BE014791D00EDB2AC42C2
:103D800005D1D4880500EDB221F81540401C126819
:103D9000002AF1D1C0B230BC704770B5704C2268B7
:103DA000002301E013001268002A17D015790600DD
:103DB000F6B2B542F6D1D5880E00B6B2B542F1D111
:103DC000002B02D11068206001E01068186010001C
:103DD000FFF7A8FA00F07BF8012000E0002070BD9A
:103DE000F8B505005E4E3068002405E001682160EA
:103DF0000768FFF797FA380000280CD001792A00ED
:103E0000D2B2914204D1002CF0D101683160EFE7C9
:103E100004000068F0E700F05AF8F1BD10B40200A9
:103E200000204F49096806E00B791400E4B2A34270
:103E300000D1401C09680029F6D1C0B210BC7047FF
:103E400000204749096801E0401C09680029FBD1AE
:103E5000C0B2704718B585B01421FF226C4620000F
:103E600012F070F9002400E0641C20003B4909783E
:103E7000C0B288420DD26B4614222100C9B289B269
:103E8000082012F093F90100C9B20A29ECD1C0B29E
:103E900000E0002006B010BD18B585B01421FF2247
:103EA0006C46200012F04EF9002408E06B46142204
:103EB0002100C9B289B2082012F0D4F9641C200094
:103EC00026490978C0B28842F0D306B010BD30B59B
:103ED00085B000252248046812E020798DF80000A2
:103EE0001222A11D0DF10200FFF70EFA6B461422FB
:103EF0002900C9B289B2082012F0B4F96D1C2468F7
:103F0000002CEAD105B030BD38B586B000250024BC
:103F100019E001A8009014230022210089B2082092
:103F200012F0D0F900280DD19DF80400FF2809D027
:103F300000220DF106019DF80400FFF7A1FE002804
:103F400000D16D1C641C20000449097880B289B23C
:103F50008842DED3280080B207B030BDB2B403007F
:103F6000DC59002000B58DB0817E8DF8121041889B
:103F7000ADF80A108188ADF80C10C17E8DF81310D1
:103F8000427D8188684604F0FFFC0DB000BD2DE93C
:103F9000F04387B007005FF0000900244FF6FE757C
:103FA0002E0012F032FA002801D01120F8E0387FFC
:103FB00000281BD0DFF8B40B01780078400150EAEC
:103FC000810038777988FF20FFF794FE00280BD016
:103FD0005FF001094FF6FF76F88A50F00400F8828E
:103FE000387F50F00100387754F04004788801F0B1
:103FF000B1F9002801D000207876B87E002803D1DE
:10400000DFF86C0B0078B8763878000604D538787D
:1040100010F00300387009E0F87E002806D1DFF8C0
:104020003C0C0178F9760178491C0170387E012832
:1040300009D1DFF8280CC07A002804D1387800288C
:1040400001D100203876DFF8148C98F80E00800734
:104050001ED54846C0B200280DD1788801F07AF903
:10406000002815D03878002805D03869007801F08C
:104070002CF900280CD0B87D400640F18680B87E2F
:10408000012840F08280F98A4FF6FB700140F982E6
:104090003878012807D138690078022803D1F88AD6
:1040A00050F04000F882B87D400640D45FFA89F9AC
:1040B000B9F1000F3BD198F80E00800737D52300E7
:1040C000DBB2BA1D7988787E04F084FF002805D021
:1040D00000207876F88A50F02000F882B87900281D
:1040E00010D0798817F1080000F0D0F906003000F0
:1040F000798880B2884201D10020B871F88A50F0E6
:104100004000F8823878012805D02200D2B2B98860
:10411000788804F0C6F92200D2B2B988788803F012
:1041200001FA002803D0F88A50F02000F88204A990
:10413000380000F0E7F80400300080B2A84200D157
:104140007E88002C29D038788DF814000697788D59
:10415000ADF8160005A8039097F82C000290F88A95
:104160000190787D00909DF81030B8F8162031004D
:1041700089B2200000F04DF805002800C0B21028D8
:104180000CD12000FFF7CEF808E03800FFF7EAFE78
:1041900000287FF47DAF112002E010252800C0B276
:1041A00007B0BDE8F08310B58EB0040001A834213B
:1041B00012F036FCA088ADF810006088ADF80E0053
:1041C000207D8DF8200020690B90207F8DF809005C
:1041D000208DADF81400207E8DF80A00607E8DF8E9
:1041E0000800608DADF8320094F82C008DF8340092
:1041F000FF208DF800008DF801005FF0FF308DF892
:1042000002000022694601A812F0BFFC00200EB097
:1042100010BD2DE9F84787B00500894616001F003C
:104220005FF010082420FFF779F80090009800282C
:1042300063D05FF0000A24210022009C200011F0CE
:1042400081FF484680B213F00DF81199002809D07B
:104250000279012A02D00079032803D1480601D44B
:1042600051F48061480501D55FF0010A139A129854
:10427000109CDFF8E8399B8CDDF800C0ACF80A3000
:10428000ADF818600223009E33730223009E337240
:10429000009BA3F80090009BDF77009B5C73009B62
:1042A0001D62ADF80A108DF80C40D2E90067CDE927
:1042B00004678DF81A005146C9B2684612F0BCF87E
:1042C000012817D15FFA8AFABAF1010F0FD1200045
:1042D000C0B212F059FA0400002C08D020680088FF
:1042E0000120C046002802D0200012F0BFFA5FF083
:1042F000000802E00098FFF715F84046C0B208B089
:10430000BDE8F087F8B505000C0008206870687FEC
:10431000002802D0687808306870A87F002802D092
:10432000687808306870287F002802D06878401CC0
:104330006870A879002806D06878297AC9B249003F
:10434000891C08186870287E002801D00E2600E01D
:104350000026002085F83400297D687841187118FE
:104360002170287E002807D0DFF8F008007B13F0CA
:104370000CFF2178401820702078752801DB00247C
:1043800003E02078FEF7CAFF0400002C54D0280078
:1043900000F054F8207080B2000A60706888A07045
:1043A000688880B2000AE070A8882071A88880B26E
:1043B000000A6071A87EA071E87EE0710827687F1E
:1043C000002806D0296A3800C0B2204405F0B3F8AE
:1043D0000837A87F002806D0696A3800C0B2204498
:1043E00005F0A9F80837A879002815D0287A3900EF
:1043F000C9B260547F1C687A3900C9B260547F1C0E
:10440000287A4200E9683800C0B22044FEF77CFFF9
:10441000287A400050FA87F7287F002804D0287FA8
:104420003900C9B260547F1C2A7D2969687820440C
:10443000F6B23044FEF768FF2000F2BD10B504006C
:1044400000F066FF2178C0B251EA8001607E8001F1
:1044500010F0C0000143207F002801D0012000E0BF
:10446000002051EA0021207E51EA4021607F51EA7C
:10447000C021A07F51EA0031A07951EA802194F84F
:10448000340051EA4031080080B210BD3EB504004E
:104490000D0001AA6946280080B203F09AFE0028A8
:1044A00019D19DF800002070019860609DF800000F
:1044B00000280BD09DF80000401E607001989DF808
:1044C000001000EB410030F8020C06E000206070A4
:1044D000280080B201E04FF6FE703EBD2DE9F041AC
:1044E00006000F001400012534210022A04640469A
:1044F00011F028FE3800C0B2082801DA002094E04C
:10450000277030787178090251FA80F0210080B26A
:1045100000F08DF8002800D00025B078F17809026D
:10452000081860813079717909020818A081B07982
:10453000A074F079E07408206070E079002805D05C
:10454000607830446061607808306070207A0028BC
:1045500005D060783044A061607808306070002039
:1045600084F82000002060626079002805D060781F
:10457000305C60716078401C6070607F002834D0CF
:1045800000206078411C6170C0B2305C84F820006B
:104590006078411C6170C0B2305C84F8210094F8EE
:1045A000210094F8201088421DD2DFF8F80A007824
:1045B00094F82010884201D20C2701E094F8207072
:1045C000DFF8E48A3800C0B24200607806EB0001F0
:1045D0004046FEF799FEC4F824806078FFB2790067
:1045E0000818607001E000206077207861788842C8
:1045F00001D2002019E060783044A0622178607810
:10460000091A2177A07900280DD0207F0E38207755
:10461000A06A0E30A062DFF8F407007B13F0B5FD4E
:10462000217F081A20772800C0B2BDE8F08110F081
:1046300003028A70C0F38302CA70C0F381120A7148
:10464000020092B2521212F001028A71020092B27A
:10465000121212F001024A71020092B2921212F08A
:1046600001024A77020092B2D21212F00102CA711C
:10467000020092B2121312F001020A72020092B208
:10468000521312F0010281F8312080B2800BC0B2C7
:104690007047020000209179002909D0DFF86C17DB
:1046A000C97A00290ED1917800290BD1012009E0A7
:1046B000DFF85837D97A002904D05189DA8A914233
:1046C00000D00120C0B27047F8B506000D001400FC
:1046D00030787178090251FA80F0210080B2FFF73A
:1046E000A6FFB078F17809020818608130797179F5
:1046F00009020818A081B079A074F079E07408204C
:104700006070E079002805D060783044606160789E
:1047100008306070207A002805D060783044A061AD
:104720006078083060706079002805D06078305C6F
:1047300060716078401C60702000FFF7AAFF0700DE
:104740003800C0B2002818D1A079002806D16078BE
:104750003044A06260782D1A25770EE060783044EE
:104760000E30A062DFF8A406007B13F00EFD617826
:104770006D1AB5F10E01081A20773800C0B2F2BDEB
:1047800010B5DFF8C84B2100E22013F0E4FE200052
:1047900010BDDFF87806C08A7047DFF87006408BDE
:1047A000704780B501004A2013F0D5FE01BD10B559
:1047B000DFF8E80B04780178491C01702000C0B2D2
:1047C00011F0E2FF002800D000242000C0B2002831
:1047D000EED02000C0B210BD2DE9F84F81468A46C8
:1047E000934698460A9D00260027514689B24846BE
:1047F00080B201F064FF0400002C0CD12800C0B28C
:10480000002808D15A46D2B2514689B2484680B2F1
:1048100002F0ACF9A8E0002C57D0EDB2002D33D057
:10482000DFF82C1B0868002801D008688047404644
:10483000C0B2002803D100202070012756E0DFF825
:10484000CC05807B800751D5DFF8542B10680028F9
:1048500004D04146C9B2200012689047DFF8440BEB
:1048600021780278521C914202DA2178491C217089
:1048700021780078814239D10126484680B204F07F
:104880005CFC0020607031E05FFA88F8B8F1000F3E
:1048900013D1A0785FFA8BFB1BEB000080B24008BD
:1048A000A070A078002801D10120A07060780028B5
:1048B00003D1DFF8F40A00786070DFF85C0B007851
:1048C000A178884212D2012710E0EDB2012D0DD15E
:1048D0005FFA88F8B8F1000F08D0DFF83005807B68
:1048E000800703D5484680B204F027FC3800C0B2E8
:1048F000002803D13000C0B2002835D0DFF80C45C5
:10490000A07B800714D5484680B212F0ABFC00288B
:104910000ED0FFB2002F03D0417911F0FE0141719A
:104920003100C9B2002903D0417951F00101417130
:10493000F6B2002E18D0A07B80070BD5484680B277
:1049400012F063FC002805D0494689B2002012F01D
:10495000A6FA09E04846618B80B2884204D14946F4
:1049600089B2012012F09BFABDE8F18F10B4DFF894
:10497000602B1278022A50D1DFF8582B1278002AC7
:104980004BD1C20707D5DFF88C2B1160136A934215
:1049900001D100231362020708D5DFF8782B51609C
:1049A000136A141DA34201D100231362C20609D564
:1049B000DFF8602B9160136A12F10804A34201D161
:1049C00000231362820609D5DFF8482BD160136AF1
:1049D00012F10C04A34201D100231362820709D50E
:1049E000DFF8302B9161136A12F11804A34201D150
:1049F00000231362420709D5DFF8182BD161136A2F
:104A000012F11C04A34201D100231362C20404D595
:104A10004FF47A72DFF8FC3A5A61400409D5DFF8A6
:104A2000F40A0161016A10F11002914201D10021E2
:104A3000016210BC7047C10703D5DFF8A40B006802
:104A400030E0010703D5DFF8980B40682AE0C10683
:104A500003D5DFF88C0B806824E0810603D5DFF8EE
:104A6000800BC0681EE0C10403D5DFF8740B4069F9
:104A700018E0810703D5DFF8680B806912E0410771
:104A800003D5DFF85C0BC0690CE0410403D5DFF807
:104A9000500B006906E010F4204F01D0002001E027
:104AA0005FF0FF307047002804D0DFF8341B096A3C
:104AB00009680160DFF8280B808C704738B5002248
:104AC000DFF80C2A1278022A07D1DFF8082A1278B8
:104AD000012A02D14CF6C0721040C9B2002905D09B
:104AE000DFF8301A8A8C1043888405E0DFF8241A36
:104AF0008A8C32EA00008884DFF8184AA08C00040F
:104B000006D501208DF800006946522013F039FDCA
:104B100000F030F8002807D120620121DFF8880B6F
:104B200000780BF0E3FB1FE0216A002904D0016844
:104B3000226A1268914217D02062206A0068012818
:104B400006D10121DFF8600B0078FEF772F90BE067
:104B5000DFF8545B012128780BF0C8FB206A02685B
:104B6000012128780BF0BBFB31BD00001320002091
:104B70005AB2030081B00020DFF89829918C890493
:104B800069D4918C090405D5918C490401D512F1A1
:104B9000100060E0918C00295DD05FF0FF30009044
:104BA0006846DFF82C190978022950D1DFF824195A
:104BB000097800294BD192F82410C90704D511684F
:104BC0000368994200D2100092F82410090704D516
:104BD00051680368994200D2101D92F82410C9064A
:104BE00005D591680368994201D212F1080092F844
:104BF0002410890605D5D1680368994201D212F1C3
:104C00000C00918C490405D511690368994201D2C1
:104C100012F11000918CC90405D5516903689942BD
:104C200001D212F1140092F82410890705D5916978
:104C30000368994201D212F1180092F82410490732
:104C400005D5D1690368994201D212F11C00694669
:104C5000884200D1002001B0704700003C5A00207B
:104C600010B50024694A7421212011F0D0FA0A28D5
:104C700001D154F001040BF0C3FA0A2801D154F019
:104C8000020412F059FD0A2801D154F00404DFF89F
:104C9000441C0868002805D0086880470A2801D10C
:104CA00054F00804FFF7D6F80A2801D154F0100494
:104CB00014F022FD0A2801D154F020042000C0B2D3
:104CC00010BD80B515F08DFB504A7421212011F0E4
:104CD000EFFA0BF0BAFA12F056FDDFF8FC1B086889
:104CE000002801D008688047FFF7D6F814F022FEAC
:104CF00001BD38B50024454D2A007421212011F052
:104D000086FA002856D12B0074220021212011F0B0
:104D100025FB00284ED1E88A4FF6FE71884249D023
:104D2000012495F82600082803D095F826000428C9
:104D30003DD101208DF800006946422013F021FC8E
:104D400015F12F01432013F01CFC15F12C01472015
:104D500013F017FC15F11C014A2013F012FC15F199
:104D60001A014B2013F00DFC15F12401502013F013
:104D700008FC15F11601532013F003FC15F12D0169
:104D8000542013F0FEFB15F11801E12013F0F9FB9C
:104D9000A87B000703D501208DF8000002E0002069
:104DA0008DF800006946522013F0EBFB02E015F08D
:104DB00018FB00240BF0F1F912F002FDDFF81C1BC8
:104DC0000868002801D008688047FFF79DF8200098
:104DD000C0B232BD10B50400E00704D50B4A7421FF
:104DE000212011F065FA200701D50BF0ECF9A0079E
:104DF00001D512F0EFFD600706D5DFF8481C086802
:104E0000002801D00868804710BD00003C5A0020EF
:104E1000F8B586B0DFF8304CDFF8305C01AA2978AD
:104E2000200017F056FA00208DF8080000208DF8B9
:104E30000A000421002012F088F8DFF8146C3178A1
:104E400080B289B2884227D20BF090F9002823D192
:104E5000DFF8007C3888002809D00421032012F0F4
:104E600074F880B232783988521A904202DA0120FE
:104E70008DF80800DFF8447C3888002809D002212A
:104E8000012012F062F880B232783988521A9042CA
:104E900002DA01208DF80A002A78210001A817F013
:104EA000E5F92100452013F06CFB9DF80A0000286D
:104EB00007D19DF80800002803D100208DF80000DC
:104EC00002E001208DF800009DF80010DFF8F00BE3
:104ED0000278DFF8F00B0078024011408DF80010E6
:104EE0006946412013F04DFB07B0F0BD78B585B0A1
:104EF0000400DFF8B80780F87240DFF84C5BDFF899
:104F00004C6B6A463178280017F0E3F98DF81240AF
:104F100032782900684617F0A9F92900452013F0D6
:104F200030FB06B070BD70B50500DFF89C6B3088B3
:104F30004FF6FE71884228D11620FDF7B1FE04001D
:104F4000002C22D001202070A879002802D0022055
:104F5000607001E001206070A86A401C0178A172B5
:104F6000401CA07A000702D4A88911F01EFDA9698F
:104F7000A01C04F0E0FA0020E0742100DFF828070C
:104F80000078FDF7B6FEA889308070BDF8B5060040
:104F90000F00150004208DF80100684600F0A5F907
:104FA0000400002C34D0206907210170401CB18A14
:104FB0000170401CB18A89B2090A0170401CB17DA0
:104FC0000170401C0120607716F10B002062012067
:104FD000A077FFF7D5FB60620120A0763800C0B251
:104FE000032802D0FFB2012F03D14FF48860E08282
:104FF00001E04020E082DFF8D00A00886080EDB256
:10500000012D01D100202076200017F07BFA00E06E
:1050100010204FF6FE71DFF8B02A1180C0B2F2BD49
:1050200070B50600DFF880564FF4806128780BF0E9
:105030005DF90920DFF8741681F82600DFF8900486
:105040000078022803D10020DFF8E41B0870FFF786
:1050500097FB0100706904F059FA012820D1102053
:10506000FDF71EFE0400002C1AD002202070B06A4A
:105070004078B16A8978090208186080B06AC078FF
:105080006070B1694A2013F07CFAB079002803D12E
:105090000520DFF8A01B087021002878FDF729FE05
:1050A00070BD0000E3160300743F002038B5050012
:1050B00002208DF80100684600F017F90400002C6A
:1050C0003FD020690421017000214170297A012913
:1050D00003D1417851F020014170697A012903D14F
:1050E000417851F040014170A97A012904D14178F9
:1050F00051F08001417001E00120A076687A01281A
:1051000006D16868002801D00120607768682062B5
:10511000E87A012801D10120E082288800F01AF9FC
:10512000002803D0E08A50F00400E0820120A0773C
:10513000FFF726FB606228886080200017F0E2F904
:1051400000E01020C0B232BDF8B584B005000E00FA
:1051500000240E2100226F46380010F0F3FFB06AE1
:10516000407810F01F0F04D0D320C046C046002066
:1051700059E0810602D501218DF80C10010602D5F7
:1051800001218DF80B10400602D501208DF80A0090
:105190009DF80A00012804D1F079002805D074692F
:1051A00003E0307A002800D0B469002C04D021003C
:1051B0000DF1020004F0BFF9B089ADF800009DF8D0
:1051C0000A0001282AD1C2490878002802D00878AC
:1051D000012804D1DFF8100B007800281BD00878D4
:1051E000002818D00878022805D1FFF7D6FAB1892F
:1051F00080B281420FD1708900F0ACF800280AD14A
:10520000002C0BD0FFF7BCFA01000DF1020004F0F6
:105210007DF9002802D12800C0B204E0684611F0F0
:1052200020FE2800C0B205B0F0BD7FB504000D001F
:105230000E2100226E46300010F084FF6889ADF820
:105240000000A86A4078810602D501218DF80B1074
:10525000010602D501218DF80A10400605D56969BD
:105260000DF1020004F067F904E0A9690DF10200F4
:1052700004F061F920798DF80C00684611F0EDFD1D
:105280007FBD18B58DB004002068807AC0071AD59C
:10529000206841894FF6FE700140206841816A46CE
:1052A00020680068C17F20680068006AFFF70CFA78
:1052B000002808D10A980078042804D16946200003
:1052C000FFF7B3FFFFE70EB010BD010000200A009A
:1052D000D2B2042A06D00A00D2B20A2A02D0C9B237
:1052E000032900D10120C0B2704710B538210170E8
:1052F0000121817017F038F90400002C06D001203C
:1053000020700120A077FFF73BFA6062200010BDFB
:10531000DFF89803807C7047DFF8100B0078704747
:10532000DFF8081B08707047DFF8041B01220A70C1
:10533000020703D50A7852F002020A70800703D5EB
:10534000087850F00400087070470000AC59002045
:10535000B859002002000020002192B24FF6F873E5
:10536000D21A032A0BD9121F05D0521E05D0921E45
:1053700007D1012105E0042103E0022101E0082119
:10538000FFE7DFF8AC2A12780A4201D0022003E0DE
:10539000C9B2002900D00120C0B27047516300207B
:1053A000BC590020A3600300C66D030038B504009B
:1053B0000D00200011F05DFF002814D001790029B4
:1053C00011D0017905290EDAEDB2012D05D0017950
:1053D000012902D00179022902D1008802F0E2FC01
:1053E000200011F09FFF31BD80B50178002906D162
:1053F0004168002903D0406804F0BAFA00E00020B8
:1054000002BD80B5A94991F82610082902D180B2C1
:1054100000F082F801BD0000F41F002010B400214C
:1054200000E0491C0A00D2B2032A12DADFF8182B76
:105430000B00DBB202EB83035B880400A4B2A3423F
:10544000EFD1DFF8400B0078C9B202F82100C52087
:105450003BE0002100E0491C0A00D2B2032A17DA1F
:10546000DFF8E42A0B00DBB202EB83035B884FF624
:10547000FE74A342EFD10B00DBB202EB8303588032
:10548000DFF8000B0078C9B202F8210000201CE010
:10549000002200E0521C1100C9B2032914DADFF81F
:1054A000A83A1100C9B213F821100029F2D1110055
:1054B000C9B203EB81014880DFF8C80A0078D2B294
:1054C00003F82200002000E0C72010BC7047000055
:1054D000162000200F20002010B4002200E0521CF3
:1054E0001100C9B2032912DADFF85C1A1300DBB22B
:1054F00001EB83035B880400A4B2A342EFD1130045
:10550000DBB211F823100029E9D0012000E00020CF
:1055100010BC704784590020F8B58AB005000027F8
:10552000624E2800F18A80B2884207D1280080B2FA
:10553000002834D0012700F03FF830E0280080B286
:1055400011F090FE0400002C29D02079012802D00F
:105550002079022823D100208DF800006088ADF862
:105560000C0068460AF099FD002818D02088DFF862
:105570005815088001A90DF11B0003F0DCFF002085
:1055800002F0A4FBADF8240000208DF826000222D2
:10559000217904A8FFF7FAFC01270020E060380019
:1055A000C0B2002804D1B18C280080B201F01CF8F0
:1055B0003800C0B20BB0F0BD80B5012002F0A9FBED
:1055C000ADF80000BDF800003849C8826946532094
:1055D00012F0D7FFBDF8000018F04EFC01BD00002E
:1055E000845900207FB504000D001226200080B2EF
:1055F000002801D1002055E020002C49C98A80B242
:1056000088420AD1FFF7BCF80100280003F07EFFB2
:10561000002801D1012600E0002600208DF80000BE
:10562000ADF8024068460AF0C7FC00280CD001A87B
:105630000AF032FC012807D1012601A9280003F055
:1056400065FF002800D000263000C0B2122807D124
:105650002900200080B211F087FD002800D000262C
:105660002900200080B201F04DF80100C9B20A29DA
:1056700001D101260BE0C0B2A02808D129002000EA
:1056800080B201F033FA200080B201F0D2FA30008B
:10569000C0B2012804D10021200080B200F008F837
:1056A0003000C0B204B070BD5B6300203C5A0020E3
:1056B00038B504000D00200080B2FFF72DFF2B004D
:1056C000DBB20D22210089B24FF6FD7000F03FF8E9
:1056D00031BD10B50400207A00280AD0A169A08944
:1056E000FFF780FF012804D1A089FFF797FE012072
:1056F0000EE0E07900280AD061696089FFF772FF47
:10570000012804D16089FFF789FE012000E0002014
:1057100010BD7CB504000D00012605208DF80100A8
:105720006846FFF7E2FD00280ED0016903220A70E7
:1057300013224A708C70220092B2120ACA700D7144
:10574000448016F0DFFE06003000C0B276BD2DE9C1
:10575000FE4306000F0090461D005FF00109042083
:105760008DF801006846FFF7C0FD0400002C2DD025
:10577000EDB2002D08D00120A077A780207850F04E
:10578000800020700020E07620690321017080F8FD
:1057900001808770BFB23F0AC770300080B2FFF748
:1057A000D9FD00280BD101A9300080B20AF098FB86
:1057B000002804D00120607701A8206201E00020C9
:1057C00060776680200016F09DFE81464846C0B294
:1057D000BDE8FE832DE9FC4104000D000126A06A0E
:1057E0004778A06A8078A16AC978090211EB00089D
:1057F000207F042804D0D320C046C046002066E0A5
:105800003800C0B2002802280AD9C01E072840D993
:105810000838012835D9801E22D0401E39D039E001
:10582000DFF86C09807B800719D50021404680B2E3
:1058300003F0EEFA00280DD0817911F0180F09D08D
:10584000A1890091438800226189008803F042FC0D
:10585000002604E00121404680B211F026FB1AE048
:10586000DFF82C09807B80070AD5404680B2FFF71D
:10587000C8FD404680B2FFF7D1FDC52800D1002603
:1058800009E0DFF80C09807B800701D518F0E2FB06
:1058900001E000E00025424692B23900C9B26089B9
:1058A00011F03FFB6089FFF755FD00280ED0A07C6A
:1058B00002280BDBA089DFF8D818C98A884205D0F6
:1058C000F6B2012E02D12800C0B200E00020BDE8EF
:1058D000F6810000A8290020AC290020B029002072
:1058E0002DE9FE4305000F0090461E005FF0010900
:1058F0000A208DF801003800C0B2002808D19DF8B8
:1059000001003100C9B2490051FA80F08DF8010060
:105910006846FFF7EAFC0400002C40D0206909210A
:105920000170401C0670017851EA4711017010F1B6
:1059300001094146484603F0FEFD19F10801FFB296
:10594000002F17D100220A980EE01300DBB230F8C6
:1059500013300B70491C1300DBB230F813309BB2CC
:105960001B0A0B70491C521C13003700DBB2FFB23C
:10597000BB42EAD30120A077FEF702FF606201A9D3
:10598000280080B20AF0ACFA002803D0012060772A
:1059900001A820626580200016F0B4FD81464846CB
:1059A000C0B2BDE8FE832DE9FF410500A86A401C96
:1059B000077817F01F07067816F0E006441C210050
:1059C00001A803F0B8FD14F1080801A9DFF8200BC5
:1059D00003F09CFD002832D03000C0B200282BD14B
:1059E00000203800C0B24000FDF798FC0400002CF5
:1059F00025D000200DE098F8001098F80120120240
:105A000052FA81F10200D2B224F8121018F1020801
:105A1000401C01003A00C9B2D2B29142EBD30094CB
:105A20003B00DBB201AA3100C9B2A88900F014F82A
:105A30002000FDF777FC02E0D320C046C046BDE859
:105A4000FF810000B4290020B45A00202420002047
:105A50004352020096FC00002DE9F04705000E00BD
:105A600017009946DFF8488BD8F80000002822D0AC
:105A70004846C0B240000E3080B2FDF711F9040074
:105A8000002C18D0DDF820A0D4202070658026716D
:105A90003900601D03F04FFD84F80D905FFA89F91D
:105AA0005FEA4902514614F10E00FDF72DFC20007B
:105AB000D8F800108847BDE8F08700000E340000D9
:105AC0005963002023200020E81F00207CB504003B
:105AD000886A401C017811F01F01057815F0E00577
